{
  "abi": [
    {
      "inputs": [],
      "stateMutability": "nonpayable",
      "type": "constructor"
    },
    {
      "anonymous": false,
      "inputs": [
        {
          "indexed": true,
          "internalType": "address",
          "name": "owner",
          "type": "address"
        },
        {
          "indexed": true,
          "internalType": "address",
          "name": "spender",
          "type": "address"
        },
        {
          "indexed": false,
          "internalType": "uint256",
          "name": "value",
          "type": "uint256"
        }
      ],
      "name": "Approval",
      "type": "event"
    },
    {
      "anonymous": false,
      "inputs": [
        {
          "indexed": true,
          "internalType": "address",
          "name": "from",
          "type": "address"
        },
        {
          "indexed": true,
          "internalType": "address",
          "name": "to",
          "type": "address"
        },
        {
          "indexed": false,
          "internalType": "uint256",
          "name": "value",
          "type": "uint256"
        }
      ],
      "name": "Transfer",
      "type": "event"
    },
    {
      "inputs": [
        {
          "internalType": "address",
          "name": "",
          "type": "address"
        },
        {
          "internalType": "address",
          "name": "",
          "type": "address"
        }
      ],
      "name": "_allowances",
      "outputs": [
        {
          "internalType": "uint256",
          "name": "",
          "type": "uint256"
        }
      ],
      "stateMutability": "view",
      "type": "function"
    },
    {
      "inputs": [
        {
          "internalType": "address",
          "name": "",
          "type": "address"
        }
      ],
      "name": "_balances",
      "outputs": [
        {
          "internalType": "uint256",
          "name": "",
          "type": "uint256"
        }
      ],
      "stateMutability": "view",
      "type": "function"
    },
    {
      "inputs": [
        {
          "internalType": "address",
          "name": "owner",
          "type": "address"
        },
        {
          "internalType": "address",
          "name": "spender",
          "type": "address"
        }
      ],
      "name": "allowance",
      "outputs": [
        {
          "internalType": "uint256",
          "name": "",
          "type": "uint256"
        }
      ],
      "stateMutability": "view",
      "type": "function"
    },
    {
      "inputs": [
        {
          "internalType": "address",
          "name": "spender",
          "type": "address"
        },
        {
          "internalType": "uint256",
          "name": "amount",
          "type": "uint256"
        }
      ],
      "name": "approve",
      "outputs": [
        {
          "internalType": "bool",
          "name": "",
          "type": "bool"
        }
      ],
      "stateMutability": "nonpayable",
      "type": "function"
    },
    {
      "inputs": [
        {
          "internalType": "address",
          "name": "account",
          "type": "address"
        }
      ],
      "name": "balanceOf",
      "outputs": [
        {
          "internalType": "uint256",
          "name": "",
          "type": "uint256"
        }
      ],
      "stateMutability": "view",
      "type": "function"
    },
    {
      "inputs": [
        {
          "internalType": "uint256",
          "name": "amount",
          "type": "uint256"
        },
        {
          "internalType": "uint256",
          "name": "minTOK",
          "type": "uint256"
        },
        {
          "internalType": "uint256",
          "name": "minETH",
          "type": "uint256"
        }
      ],
      "name": "burnLiquidityTokens",
      "outputs": [
        {
          "internalType": "uint256",
          "name": "",
          "type": "uint256"
        },
        {
          "internalType": "uint256",
          "name": "",
          "type": "uint256"
        }
      ],
      "stateMutability": "payable",
      "type": "function"
    },
    {
      "inputs": [
        {
          "internalType": "uint256",
          "name": "amount",
          "type": "uint256"
        },
        {
          "internalType": "uint256",
          "name": "maxPrice",
          "type": "uint256"
        }
      ],
      "name": "buyTokens",
      "outputs": [
        {
          "internalType": "uint256",
          "name": "",
          "type": "uint256"
        },
        {
          "internalType": "uint256",
          "name": "",
          "type": "uint256"
        },
        {
          "internalType": "uint256",
          "name": "",
          "type": "uint256"
        }
      ],
      "stateMutability": "payable",
      "type": "function"
    },
    {
      "inputs": [
        {
          "internalType": "contract IERC20",
          "name": "_RUXtoken",
          "type": "address"
        },
        {
          "internalType": "uint8",
          "name": "_feePercent",
          "type": "uint8"
        },
        {
          "internalType": "uint256",
          "name": "initialTOK",
          "type": "uint256"
        },
        {
          "internalType": "uint256",
          "name": "initialETH",
          "type": "uint256"
        }
      ],
      "name": "initialize",
      "outputs": [
        {
          "internalType": "uint256",
          "name": "",
          "type": "uint256"
        }
      ],
      "stateMutability": "payable",
      "type": "function"
    },
    {
      "inputs": [
        {
          "internalType": "uint256",
          "name": "amount",
          "type": "uint256"
        },
        {
          "internalType": "uint256",
          "name": "maxTOK",
          "type": "uint256"
        },
        {
          "internalType": "uint256",
          "name": "maxETH",
          "type": "uint256"
        }
      ],
      "name": "mintLiquidityTokens",
      "outputs": [
        {
          "internalType": "uint256",
          "name": "",
          "type": "uint256"
        },
        {
          "internalType": "uint256",
          "name": "",
          "type": "uint256"
        }
      ],
      "stateMutability": "payable",
      "type": "function"
    },
    {
      "inputs": [
        {
          "internalType": "uint256",
          "name": "amount",
          "type": "uint256"
        },
        {
          "internalType": "uint256",
          "name": "minPrice",
          "type": "uint256"
        }
      ],
      "name": "sellTokens",
      "outputs": [
        {
          "internalType": "uint256",
          "name": "",
          "type": "uint256"
        },
        {
          "internalType": "uint256",
          "name": "",
          "type": "uint256"
        },
        {
          "internalType": "uint256",
          "name": "",
          "type": "uint256"
        }
      ],
      "stateMutability": "nonpayable",
      "type": "function"
    },
    {
      "inputs": [],
      "name": "tokenBalance",
      "outputs": [
        {
          "internalType": "uint256",
          "name": "",
          "type": "uint256"
        }
      ],
      "stateMutability": "view",
      "type": "function"
    },
    {
      "inputs": [],
      "name": "totalSupply",
      "outputs": [
        {
          "internalType": "uint256",
          "name": "",
          "type": "uint256"
        }
      ],
      "stateMutability": "view",
      "type": "function"
    },
    {
      "inputs": [
        {
          "internalType": "address",
          "name": "recipient",
          "type": "address"
        },
        {
          "internalType": "uint256",
          "name": "amount",
          "type": "uint256"
        }
      ],
      "name": "transfer",
      "outputs": [
        {
          "internalType": "bool",
          "name": "",
          "type": "bool"
        }
      ],
      "stateMutability": "nonpayable",
      "type": "function"
    },
    {
      "inputs": [
        {
          "internalType": "address",
          "name": "sender",
          "type": "address"
        },
        {
          "internalType": "address",
          "name": "recipient",
          "type": "address"
        },
        {
          "internalType": "uint256",
          "name": "amount",
          "type": "uint256"
        }
      ],
      "name": "transferFrom",
      "outputs": [
        {
          "internalType": "bool",
          "name": "",
          "type": "bool"
        }
      ],
      "stateMutability": "nonpayable",
      "type": "function"
    }
  ],
  "bytecode": "608060405234801561001057600080fd5b50600480546001600160a01b03191633179055611144806100326000396000f3fe6080604052600436106100dd5760003560e01c80636ebcf6071161007f5780639e1a4d19116100595780639e1a4d1914610271578063a9059cbb14610286578063dd62ed3e146102a6578063ed9772b6146102ec57600080fd5b80636ebcf607146101e057806370a082311461020d5780637975ce281461024357600080fd5b806323b872dd116100bb57806323b872dd1461017257806328e56f3614610192578063495ef15e146101a55780635bb6b020146101cd57600080fd5b8063024c2ddd146100e2578063095ea7b31461012d57806318160ddd1461015d575b600080fd5b3480156100ee57600080fd5b5061011a6100fd366004610ee5565b600860209081526000928352604080842090915290825290205481565b6040519081526020015b60405180910390f35b34801561013957600080fd5b5061014d610148366004610f1e565b61030c565b6040519015158152602001610124565b34801561016957600080fd5b5060075461011a565b34801561017e57600080fd5b5061014d61018d366004610f4a565b610399565b61011a6101a0366004610f8b565b6104e2565b6101b86101b3366004610fd7565b610658565b60408051928352602083019190915201610124565b6101b86101db366004610fd7565b610823565b3480156101ec57600080fd5b5061011a6101fb366004611003565b60066020526000908152604090205481565b34801561021957600080fd5b5061011a610228366004611003565b6001600160a01b031660009081526006602052604090205490565b610256610251366004611020565b610a5c565b60408051938452602084019290925290820152606001610124565b34801561027d57600080fd5b5060025461011a565b34801561029257600080fd5b5061014d6102a1366004610f1e565b610bf6565b3480156102b257600080fd5b5061011a6102c1366004610ee5565b6001600160a01b03918216600090815260086020908152604080832093909416825291909152205490565b3480156102f857600080fd5b50610256610307366004611020565b610cd8565b60003360008181526008602090815260408083206001600160a01b03881680855290835281842093909355518581529192917f8c5be1e5ebec7d5bd14f71427d1e84f3dd0314c0f7b2291e5b200ac8c7c3b925910160405180910390a3503360009081526008602090815260408083206001600160a01b0386168452909152902081905560015b92915050565b6001600160a01b03831660009081526006602052604081205482118015906103bf575060015b80156103ee57506001600160a01b03841660009081526008602090815260408083203384529091529020548211155b6103f757600080fd5b6001600160a01b0384166000908152600660205260408120805484929061041f908490611058565b90915550506001600160a01b0383166000908152600660205260408120805484929061044c90849061106b565b90915550506001600160a01b038416600090815260086020908152604080832033845290915281208054849290610484908490611058565b92505081905550826001600160a01b0316846001600160a01b03167fddf252ad1be2c89b69c2b068fc378daa952ba7f163c4a11628f55a4df523b3ef846040516104d091815260200190565b60405180910390a35060019392505050565b6004546000906001600160a01b031633146104fc57600080fd5b600080546001600160a01b0319166001600160a01b0387811691821790925560048054604051636eb1769f60e11b8152931690830152306024830152849163dd62ed3e90604401602060405180830381865afa158015610560573d6000803e3d6000fd5b505050506040513d601f19601f82011682018060405250810190610584919061107e565b101561058f57600080fd5b600054600480546040516323b872dd60e01b81526001600160a01b039182169281019290925230602483015260448201869052909116906323b872dd906064016020604051808303816000875af11580156105ee573d6000803e3d6000fd5b505050506040513d601f19601f820116820180604052508101906106129190611097565b61061b57600080fd5b60ff841660015561062c83836110b9565b600555600283905560039190915533600090815260066020526040902082905560079190915592915050565b600080600060075460025461066d91906110e6565b905060006007548760035461068291906110b9565b61068c91906110e6565b9050600061069a88846110b9565b90508582101580156106ac5750868110155b6106b557600080fd5b336000908152600660205260409020548811156106d157600080fd5b81600354101580156106e557508060025410155b6106ee57600080fd5b60005460405163a9059cbb60e01b8152336004820152602481018390526001600160a01b039091169063a9059cbb906044016020604051808303816000875af115801561073f573d6000803e3d6000fd5b505050506040513d601f19601f820116820180604052508101906107639190611097565b506040513390819084156108fc029085906000818181858888f19350505050158015610793573d6000803e3d6000fd5b5033600090815260066020526040812080548b92906107b3908490611058565b9250508190555088600760008282546107cc9190611058565b9250508190555081600260008282546107e59190611058565b9250508190555082600360008282546107fe9190611058565b909155505060035460025461081391906110b9565b6005555097909650945050505050565b600080600060075460025461083891906110e6565b905060006007548760035461084d91906110b9565b61085791906110e6565b9050600061086588846110b9565b90508582111580156108775750868111155b61088057600080fd5b600054604051636eb1769f60e11b815233600482015230602482015288916001600160a01b03169063dd62ed3e90604401602060405180830381865afa1580156108ce573d6000803e3d6000fd5b505050506040513d601f19601f820116820180604052508101906108f2919061107e565b10156108fd57600080fd5b8534101561090a57600080fd5b6000546040516323b872dd60e01b8152336004820152306024820152604481018390526001600160a01b03909116906323b872dd906064016020604051808303816000875af1158015610961573d6000803e3d6000fd5b505050506040513d601f19601f820116820180604052508101906109859190611097565b61098e57600080fd5b33806108fc61099d8534611058565b6040518115909202916000818181858888f193505050501580156109c5573d6000803e3d6000fd5b503360009081526006602052604090205415610a055733600090815260066020526040812080548b92906109fa90849061106b565b90915550610a189050565b3360009081526006602052604090208990555b8860076000828254610a2a919061106b565b925050819055508160026000828254610a43919061106b565b9250508190555082600360008282546107fe919061106b565b600080600080610a6b85610e5a565b9050600060035487600254610a809190611058565b600554610a8d91906110e6565b610a979190611058565b90506000610aa58388611058565b905080821115610ab457600080fd5b6000610abf89610e5a565b90506000610acd828b611058565b9050600254811115610ade57600080fd5b60005460405163a9059cbb60e01b8152336004820152602481018390526001600160a01b039091169063a9059cbb906044016020604051808303816000875af1158015610b2f573d6000803e3d6000fd5b505050506040513d601f19601f82011682018060405250810190610b539190611097565b610b5c57600080fd5b6000610b688585611058565b90508015610ba2576040513390819083156108fc029084906000818181858888f19350505050158015610b9f573d6000803e3d6000fd5b50505b8160026000828254610bb49190611058565b925050819055508960036000828254610bcd919061106b565b9091555050600354600254610be291906110b9565b600555509199939850965091945050505050565b60006001600160a01b03831615801590610c0f57503315155b610c1857600080fd5b336000908152600660205260409020548211801590610c35575060015b610c3e57600080fd5b3360009081526006602052604081208054849290610c5d908490611058565b90915550506001600160a01b03831660009081526006602052604081208054849290610c8a90849061106b565b90915550506040518281526001600160a01b0384169033907fddf252ad1be2c89b69c2b068fc378daa952ba7f163c4a11628f55a4df523b3ef9060200160405180910390a350600192915050565b600080600080610ce786610e5a565b90506000610cf58288611058565b9050600081600254610d07919061106b565b600554610d1491906110e6565b600354610d219190611058565b90506000610d2e82610e5a565b90506000610d3c8284611058565b9050600354811115610d4d57600080fd5b88811015610d5a57600080fd5b6000546040516323b872dd60e01b8152336004820152306024820152604481018c90526001600160a01b03909116906323b872dd906064016020604051808303816000875af1158015610db1573d6000803e3d6000fd5b505050506040513d601f19601f82011682018060405250810190610dd59190611097565b506040513390819083156108fc029084906000818181858888f19350505050158015610e05573d6000803e3d6000fd5b508a60026000828254610e18919061106b565b925050819055508160036000828254610e319190611058565b9091555050600354600254610e4691906110b9565b600555509650945091925050509250925092565b6001546000908190606490610e6f90856110b9565b610e7991906110fa565b600003610ea157606460015484610e9091906110b9565b610e9a91906110e6565b9050610393565b606460015484610eb191906110b9565b610ebb91906110e6565b610ec690600161106b565b9392505050565b6001600160a01b0381168114610ee257600080fd5b50565b60008060408385031215610ef857600080fd5b8235610f0381610ecd565b91506020830135610f1381610ecd565b809150509250929050565b60008060408385031215610f3157600080fd5b8235610f3c81610ecd565b946020939093013593505050565b600080600060608486031215610f5f57600080fd5b8335610f6a81610ecd565b92506020840135610f7a81610ecd565b929592945050506040919091013590565b60008060008060808587031215610fa157600080fd5b8435610fac81610ecd565b9350602085013560ff81168114610fc257600080fd5b93969395505050506040820135916060013590565b600080600060608486031215610fec57600080fd5b505081359360208301359350604090920135919050565b60006020828403121561101557600080fd5b8135610ec681610ecd565b6000806040838503121561103357600080fd5b50508035926020909101359150565b634e487b7160e01b600052601160045260246000fd5b8181038181111561039357610393611042565b8082018082111561039357610393611042565b60006020828403121561109057600080fd5b5051919050565b6000602082840312156110a957600080fd5b81518015158114610ec657600080fd5b808202811582820484141761039357610393611042565b634e487b7160e01b600052601260045260246000fd5b6000826110f5576110f56110d0565b500490565b600082611109576111096110d0565b50069056fea2646970667358221220a85558ea237674f8cddd3093f5e4b430bf0139c2558aad1aa5ece8e9d741133664736f6c63430008110033",
  "bytecodeSha1": "9ea121eb3343bf19ee4beef0422ce1abb5f77db2",
  "compiler": {
    "evm_version": "istanbul",
    "optimizer": {
      "enabled": true,
      "runs": 200
    },
    "version": "0.8.17+commit.8df45f5f"
  },
  "contractName": "RUExchange",
  "language": "Solidity",
  "natspec": {
    "kind": "dev",
    "methods": {
      "allowance(address,address)": {
        "details": "Returns the remaining number of tokens that `spender` will be allowed to spend on behalf of `owner` through {transferFrom}. This is zero by default. This value changes when {approve} or {transferFrom} are called."
      },
      "approve(address,uint256)": {
        "details": "Sets `amount` as the allowance of `spender` over the caller's tokens. Returns a boolean value indicating whether the operation succeeded. IMPORTANT: Beware that changing an allowance with this method brings the risk that someone may use both the old and the new allowance by unfortunate transaction ordering. One possible solution to mitigate this race condition is to first reduce the spender's allowance to 0 and set the desired value afterwards: https://github.com/ethereum/EIPs/issues/20#issuecomment-263524729 Emits an {Approval} event."
      },
      "balanceOf(address)": {
        "details": "Returns the amount of tokens owned by `account`."
      },
      "burnLiquidityTokens(uint256,uint256,uint256)": {
        "details": "burn `amount` liquidity tokens, as long as this will result in at least minTOK tokens and at least minETH eth being generated. The resulting tokens and ETH will be credited to the sender.",
        "returns": {
          "_0": "Returns a tuple consisting of (token_credited, eth_credited). "
        }
      },
      "buyTokens(uint256,uint256)": {
        "details": "Swap ETH for tokens. Buy `amount` tokens as long as the total price is at most `maxPrice`. revert if this is impossible. Note that the fee is taken in *both* tokens and ETH. The fee percentage is taken from `amount` tokens  (rounded up) *after* they are bought, and taken from the ETH sent (rounded up) *before* the purchase.",
        "returns": {
          "_0": "Returns the actual total cost in ETH including fee."
        }
      },
      "initialize(address,uint8,uint256,uint256)": {
        "details": "initialize the exchange contract and add liquidity. Initialization may be performed only once.  The initial supply of tokens is `initialTOK` (the caller must approve the exchange address to spend this much on their behalf). The initial supply of ETH is `initialETH` (the value sent in the call must be at least this much). The number of liquidity tokens allocated is returned."
      },
      "mintLiquidityTokens(uint256,uint256,uint256)": {
        "details": "mint `amount` liquidity tokens, as long as the total number of tokens spent is at most `maxTOK` and the total amount of ETH spent is `maxETH`. The token allowance for the exchange address must be at least `maxTOK`, and the msg value at least `maxETH`. Unused funds will be returned to the sender.",
        "returns": {
          "_0": "returns a tuple consisting of (token_spent, eth_spent). "
        }
      },
      "sellTokens(uint256,uint256)": {
        "details": "Swap tokens for ETH Sell `amount` tokens as long as the total price is at least `minPrice`. revert if this is impossible. Note that the fee is taken in *both* tokens and ETH. The fee percentage is taken from `amount` tokens  (rounded up) *before* selling, and taken from the ETH returned (rounded up) *after* selling.",
        "returns": {
          "_0": "Returns a tuple with the actual total value in ETH minus the fee, the eth fee and the token fee."
        }
      },
      "tokenBalance()": {
        "notice": "Returns the current number of tokens in the liquidity pool."
      },
      "totalSupply()": {
        "details": "Returns the amount of tokens in existence."
      },
      "transfer(address,uint256)": {
        "details": "Moves `amount` tokens from the caller's account to `recipient`. Returns a boolean value indicating whether the operation succeeded. Emits a {Transfer} event."
      },
      "transferFrom(address,address,uint256)": {
        "details": "Moves `amount` tokens from `sender` to `recipient` using the allowance mechanism. `amount` is then deducted from the caller's allowance. Returns a boolean value indicating whether the operation succeeded. Emits a {Transfer} event."
      }
    },
    "version": 1
  },
  "opcodes": "PUSH1 0x80 PUSH1 0x40 MSTORE PUSH1 0x4 CALLDATASIZE LT PUSH2 0xDD JUMPI PUSH1 0x0 CALLDATALOAD PUSH1 0xE0 SHR DUP1 PUSH4 0x6EBCF607 GT PUSH2 0x7F JUMPI DUP1 PUSH4 0x9E1A4D19 GT PUSH2 0x59 JUMPI DUP1 PUSH4 0x9E1A4D19 EQ PUSH2 0x271 JUMPI DUP1 PUSH4 0xA9059CBB EQ PUSH2 0x286 JUMPI DUP1 PUSH4 0xDD62ED3E EQ PUSH2 0x2A6 JUMPI DUP1 PUSH4 0xED9772B6 EQ PUSH2 0x2EC JUMPI PUSH1 0x0 DUP1 REVERT JUMPDEST DUP1 PUSH4 0x6EBCF607 EQ PUSH2 0x1E0 JUMPI DUP1 PUSH4 0x70A08231 EQ PUSH2 0x20D JUMPI DUP1 PUSH4 0x7975CE28 EQ PUSH2 0x243 JUMPI PUSH1 0x0 DUP1 REVERT JUMPDEST DUP1 PUSH4 0x23B872DD GT PUSH2 0xBB JUMPI DUP1 PUSH4 0x23B872DD EQ PUSH2 0x172 JUMPI DUP1 PUSH4 0x28E56F36 EQ PUSH2 0x192 JUMPI DUP1 PUSH4 0x495EF15E EQ PUSH2 0x1A5 JUMPI DUP1 PUSH4 0x5BB6B020 EQ PUSH2 0x1CD JUMPI PUSH1 0x0 DUP1 REVERT JUMPDEST DUP1 PUSH4 0x24C2DDD EQ PUSH2 0xE2 JUMPI DUP1 PUSH4 0x95EA7B3 EQ PUSH2 0x12D JUMPI DUP1 PUSH4 0x18160DDD EQ PUSH2 0x15D JUMPI JUMPDEST PUSH1 0x0 DUP1 REVERT JUMPDEST CALLVALUE DUP1 ISZERO PUSH2 0xEE JUMPI PUSH1 0x0 DUP1 REVERT JUMPDEST POP PUSH2 0x11A PUSH2 0xFD CALLDATASIZE PUSH1 0x4 PUSH2 0xEE5 JUMP JUMPDEST PUSH1 0x8 PUSH1 0x20 SWAP1 DUP2 MSTORE PUSH1 0x0 SWAP3 DUP4 MSTORE PUSH1 0x40 DUP1 DUP5 KECCAK256 SWAP1 SWAP2 MSTORE SWAP1 DUP3 MSTORE SWAP1 KECCAK256 SLOAD DUP2 JUMP JUMPDEST PUSH1 0x40 MLOAD SWAP1 DUP2 MSTORE PUSH1 0x20 ADD JUMPDEST PUSH1 0x40 MLOAD DUP1 SWAP2 SUB SWAP1 RETURN JUMPDEST CALLVALUE DUP1 ISZERO PUSH2 0x139 JUMPI PUSH1 0x0 DUP1 REVERT JUMPDEST POP PUSH2 0x14D PUSH2 0x148 CALLDATASIZE PUSH1 0x4 PUSH2 0xF1E JUMP JUMPDEST PUSH2 0x30C JUMP JUMPDEST PUSH1 0x40 MLOAD SWAP1 ISZERO ISZERO DUP2 MSTORE PUSH1 0x20 ADD PUSH2 0x124 JUMP JUMPDEST CALLVALUE DUP1 ISZERO PUSH2 0x169 JUMPI PUSH1 0x0 DUP1 REVERT JUMPDEST POP PUSH1 0x7 SLOAD PUSH2 0x11A JUMP JUMPDEST CALLVALUE DUP1 ISZERO PUSH2 0x17E JUMPI PUSH1 0x0 DUP1 REVERT JUMPDEST POP PUSH2 0x14D PUSH2 0x18D CALLDATASIZE PUSH1 0x4 PUSH2 0xF4A JUMP JUMPDEST PUSH2 0x399 JUMP JUMPDEST PUSH2 0x11A PUSH2 0x1A0 CALLDATASIZE PUSH1 0x4 PUSH2 0xF8B JUMP JUMPDEST PUSH2 0x4E2 JUMP JUMPDEST PUSH2 0x1B8 PUSH2 0x1B3 CALLDATASIZE PUSH1 0x4 PUSH2 0xFD7 JUMP JUMPDEST PUSH2 0x658 JUMP JUMPDEST PUSH1 0x40 DUP1 MLOAD SWAP3 DUP4 MSTORE PUSH1 0x20 DUP4 ADD SWAP2 SWAP1 SWAP2 MSTORE ADD PUSH2 0x124 JUMP JUMPDEST PUSH2 0x1B8 PUSH2 0x1DB CALLDATASIZE PUSH1 0x4 PUSH2 0xFD7 JUMP JUMPDEST PUSH2 0x823 JUMP JUMPDEST CALLVALUE DUP1 ISZERO PUSH2 0x1EC JUMPI PUSH1 0x0 DUP1 REVERT JUMPDEST POP PUSH2 0x11A PUSH2 0x1FB CALLDATASIZE PUSH1 0x4 PUSH2 0x1003 JUMP JUMPDEST PUSH1 0x6 PUSH1 0x20 MSTORE PUSH1 0x0 SWAP1 DUP2 MSTORE PUSH1 0x40 SWAP1 KECCAK256 SLOAD DUP2 JUMP JUMPDEST CALLVALUE DUP1 ISZERO PUSH2 0x219 JUMPI PUSH1 0x0 DUP1 REVERT JUMPDEST POP PUSH2 0x11A PUSH2 0x228 CALLDATASIZE PUSH1 0x4 PUSH2 0x1003 JUMP JUMPDEST PUSH1 0x1 PUSH1 0x1 PUSH1 0xA0 SHL SUB AND PUSH1 0x0 SWAP1 DUP2 MSTORE PUSH1 0x6 PUSH1 0x20 MSTORE PUSH1 0x40 SWAP1 KECCAK256 SLOAD SWAP1 JUMP JUMPDEST PUSH2 0x256 PUSH2 0x251 CALLDATASIZE PUSH1 0x4 PUSH2 0x1020 JUMP JUMPDEST PUSH2 0xA5C JUMP JUMPDEST PUSH1 0x40 DUP1 MLOAD SWAP4 DUP5 MSTORE PUSH1 0x20 DUP5 ADD SWAP3 SWAP1 SWAP3 MSTORE SWAP1 DUP3 ADD MSTORE PUSH1 0x60 ADD PUSH2 0x124 JUMP JUMPDEST CALLVALUE DUP1 ISZERO PUSH2 0x27D JUMPI PUSH1 0x0 DUP1 REVERT JUMPDEST POP PUSH1 0x2 SLOAD PUSH2 0x11A JUMP JUMPDEST CALLVALUE DUP1 ISZERO PUSH2 0x292 JUMPI PUSH1 0x0 DUP1 REVERT JUMPDEST POP PUSH2 0x14D PUSH2 0x2A1 CALLDATASIZE PUSH1 0x4 PUSH2 0xF1E JUMP JUMPDEST PUSH2 0xBF6 JUMP JUMPDEST CALLVALUE DUP1 ISZERO PUSH2 0x2B2 JUMPI PUSH1 0x0 DUP1 REVERT JUMPDEST POP PUSH2 0x11A PUSH2 0x2C1 CALLDATASIZE PUSH1 0x4 PUSH2 0xEE5 JUMP JUMPDEST PUSH1 0x1 PUSH1 0x1 PUSH1 0xA0 SHL SUB SWAP2 DUP3 AND PUSH1 0x0 SWAP1 DUP2 MSTORE PUSH1 0x8 PUSH1 0x20 SWAP1 DUP2 MSTORE PUSH1 0x40 DUP1 DUP4 KECCAK256 SWAP4 SWAP1 SWAP5 AND DUP3 MSTORE SWAP2 SWAP1 SWAP2 MSTORE KECCAK256 SLOAD SWAP1 JUMP JUMPDEST CALLVALUE DUP1 ISZERO PUSH2 0x2F8 JUMPI PUSH1 0x0 DUP1 REVERT JUMPDEST POP PUSH2 0x256 PUSH2 0x307 CALLDATASIZE PUSH1 0x4 PUSH2 0x1020 JUMP JUMPDEST PUSH2 0xCD8 JUMP JUMPDEST PUSH1 0x0 CALLER PUSH1 0x0 DUP2 DUP2 MSTORE PUSH1 0x8 PUSH1 0x20 SWAP1 DUP2 MSTORE PUSH1 0x40 DUP1 DUP4 KECCAK256 PUSH1 0x1 PUSH1 0x1 PUSH1 0xA0 SHL SUB DUP9 AND DUP1 DUP6 MSTORE SWAP1 DUP4 MSTORE DUP2 DUP5 KECCAK256 SWAP4 SWAP1 SWAP4 SSTORE MLOAD DUP6 DUP2 MSTORE SWAP2 SWAP3 SWAP2 PUSH32 0x8C5BE1E5EBEC7D5BD14F71427D1E84F3DD0314C0F7B2291E5B200AC8C7C3B925 SWAP2 ADD PUSH1 0x40 MLOAD DUP1 SWAP2 SUB SWAP1 LOG3 POP CALLER PUSH1 0x0 SWAP1 DUP2 MSTORE PUSH1 0x8 PUSH1 0x20 SWAP1 DUP2 MSTORE PUSH1 0x40 DUP1 DUP4 KECCAK256 PUSH1 0x1 PUSH1 0x1 PUSH1 0xA0 SHL SUB DUP7 AND DUP5 MSTORE SWAP1 SWAP2 MSTORE SWAP1 KECCAK256 DUP2 SWAP1 SSTORE PUSH1 0x1 JUMPDEST SWAP3 SWAP2 POP POP JUMP JUMPDEST PUSH1 0x1 PUSH1 0x1 PUSH1 0xA0 SHL SUB DUP4 AND PUSH1 0x0 SWAP1 DUP2 MSTORE PUSH1 0x6 PUSH1 0x20 MSTORE PUSH1 0x40 DUP2 KECCAK256 SLOAD DUP3 GT DUP1 ISZERO SWAP1 PUSH2 0x3BF JUMPI POP PUSH1 0x1 JUMPDEST DUP1 ISZERO PUSH2 0x3EE JUMPI POP PUSH1 0x1 PUSH1 0x1 PUSH1 0xA0 SHL SUB DUP5 AND PUSH1 0x0 SWAP1 DUP2 MSTORE PUSH1 0x8 PUSH1 0x20 SWAP1 DUP2 MSTORE PUSH1 0x40 DUP1 DUP4 KECCAK256 CALLER DUP5 MSTORE SWAP1 SWAP2 MSTORE SWAP1 KECCAK256 SLOAD DUP3 GT ISZERO JUMPDEST PUSH2 0x3F7 JUMPI PUSH1 0x0 DUP1 REVERT JUMPDEST PUSH1 0x1 PUSH1 0x1 PUSH1 0xA0 SHL SUB DUP5 AND PUSH1 0x0 SWAP1 DUP2 MSTORE PUSH1 0x6 PUSH1 0x20 MSTORE PUSH1 0x40 DUP2 KECCAK256 DUP1 SLOAD DUP5 SWAP3 SWAP1 PUSH2 0x41F SWAP1 DUP5 SWAP1 PUSH2 0x1058 JUMP JUMPDEST SWAP1 SWAP2 SSTORE POP POP PUSH1 0x1 PUSH1 0x1 PUSH1 0xA0 SHL SUB DUP4 AND PUSH1 0x0 SWAP1 DUP2 MSTORE PUSH1 0x6 PUSH1 0x20 MSTORE PUSH1 0x40 DUP2 KECCAK256 DUP1 SLOAD DUP5 SWAP3 SWAP1 PUSH2 0x44C SWAP1 DUP5 SWAP1 PUSH2 0x106B JUMP JUMPDEST SWAP1 SWAP2 SSTORE POP POP PUSH1 0x1 PUSH1 0x1 PUSH1 0xA0 SHL SUB DUP5 AND PUSH1 0x0 SWAP1 DUP2 MSTORE PUSH1 0x8 PUSH1 0x20 SWAP1 DUP2 MSTORE PUSH1 0x40 DUP1 DUP4 KECCAK256 CALLER DUP5 MSTORE SWAP1 SWAP2 MSTORE DUP2 KECCAK256 DUP1 SLOAD DUP5 SWAP3 SWAP1 PUSH2 0x484 SWAP1 DUP5 SWAP1 PUSH2 0x1058 JUMP JUMPDEST SWAP3 POP POP DUP2 SWAP1 SSTORE POP DUP3 PUSH1 0x1 PUSH1 0x1 PUSH1 0xA0 SHL SUB AND DUP5 PUSH1 0x1 PUSH1 0x1 PUSH1 0xA0 SHL SUB AND PUSH32 0xDDF252AD1BE2C89B69C2B068FC378DAA952BA7F163C4A11628F55A4DF523B3EF DUP5 PUSH1 0x40 MLOAD PUSH2 0x4D0 SWAP2 DUP2 MSTORE PUSH1 0x20 ADD SWAP1 JUMP JUMPDEST PUSH1 0x40 MLOAD DUP1 SWAP2 SUB SWAP1 LOG3 POP PUSH1 0x1 SWAP4 SWAP3 POP POP POP JUMP JUMPDEST PUSH1 0x4 SLOAD PUSH1 0x0 SWAP1 PUSH1 0x1 PUSH1 0x1 PUSH1 0xA0 SHL SUB AND CALLER EQ PUSH2 0x4FC JUMPI PUSH1 0x0 DUP1 REVERT JUMPDEST PUSH1 0x0 DUP1 SLOAD PUSH1 0x1 PUSH1 0x1 PUSH1 0xA0 SHL SUB NOT AND PUSH1 0x1 PUSH1 0x1 PUSH1 0xA0 SHL SUB DUP8 DUP2 AND SWAP2 DUP3 OR SWAP1 SWAP3 SSTORE PUSH1 0x4 DUP1 SLOAD PUSH1 0x40 MLOAD PUSH4 0x6EB1769F PUSH1 0xE1 SHL DUP2 MSTORE SWAP4 AND SWAP1 DUP4 ADD MSTORE ADDRESS PUSH1 0x24 DUP4 ADD MSTORE DUP5 SWAP2 PUSH4 0xDD62ED3E SWAP1 PUSH1 0x44 ADD PUSH1 0x20 PUSH1 0x40 MLOAD DUP1 DUP4 SUB DUP2 DUP7 GAS STATICCALL ISZERO DUP1 ISZERO PUSH2 0x560 JUMPI RETURNDATASIZE PUSH1 0x0 DUP1 RETURNDATACOPY RETURNDATASIZE PUSH1 0x0 REVERT JUMPDEST POP POP POP POP PUSH1 0x40 MLOAD RETURNDATASIZE PUSH1 0x1F NOT PUSH1 0x1F DUP3 ADD AND DUP3 ADD DUP1 PUSH1 0x40 MSTORE POP DUP2 ADD SWAP1 PUSH2 0x584 SWAP2 SWAP1 PUSH2 0x107E JUMP JUMPDEST LT ISZERO PUSH2 0x58F JUMPI PUSH1 0x0 DUP1 REVERT JUMPDEST PUSH1 0x0 SLOAD PUSH1 0x4 DUP1 SLOAD PUSH1 0x40 MLOAD PUSH4 0x23B872DD PUSH1 0xE0 SHL DUP2 MSTORE PUSH1 0x1 PUSH1 0x1 PUSH1 0xA0 SHL SUB SWAP2 DUP3 AND SWAP3 DUP2 ADD SWAP3 SWAP1 SWAP3 MSTORE ADDRESS PUSH1 0x24 DUP4 ADD MSTORE PUSH1 0x44 DUP3 ADD DUP7 SWAP1 MSTORE SWAP1 SWAP2 AND SWAP1 PUSH4 0x23B872DD SWAP1 PUSH1 0x64 ADD PUSH1 0x20 PUSH1 0x40 MLOAD DUP1 DUP4 SUB DUP2 PUSH1 0x0 DUP8 GAS CALL ISZERO DUP1 ISZERO PUSH2 0x5EE JUMPI RETURNDATASIZE PUSH1 0x0 DUP1 RETURNDATACOPY RETURNDATASIZE PUSH1 0x0 REVERT JUMPDEST POP POP POP POP PUSH1 0x40 MLOAD RETURNDATASIZE PUSH1 0x1F NOT PUSH1 0x1F DUP3 ADD AND DUP3 ADD DUP1 PUSH1 0x40 MSTORE POP DUP2 ADD SWAP1 PUSH2 0x612 SWAP2 SWAP1 PUSH2 0x1097 JUMP JUMPDEST PUSH2 0x61B JUMPI PUSH1 0x0 DUP1 REVERT JUMPDEST PUSH1 0xFF DUP5 AND PUSH1 0x1 SSTORE PUSH2 0x62C DUP4 DUP4 PUSH2 0x10B9 JUMP JUMPDEST PUSH1 0x5 SSTORE PUSH1 0x2 DUP4 SWAP1 SSTORE PUSH1 0x3 SWAP2 SWAP1 SWAP2 SSTORE CALLER PUSH1 0x0 SWAP1 DUP2 MSTORE PUSH1 0x6 PUSH1 0x20 MSTORE PUSH1 0x40 SWAP1 KECCAK256 DUP3 SWAP1 SSTORE PUSH1 0x7 SWAP2 SWAP1 SWAP2 SSTORE SWAP3 SWAP2 POP POP JUMP JUMPDEST PUSH1 0x0 DUP1 PUSH1 0x0 PUSH1 0x7 SLOAD PUSH1 0x2 SLOAD PUSH2 0x66D SWAP2 SWAP1 PUSH2 0x10E6 JUMP JUMPDEST SWAP1 POP PUSH1 0x0 PUSH1 0x7 SLOAD DUP8 PUSH1 0x3 SLOAD PUSH2 0x682 SWAP2 SWAP1 PUSH2 0x10B9 JUMP JUMPDEST PUSH2 0x68C SWAP2 SWAP1 PUSH2 0x10E6 JUMP JUMPDEST SWAP1 POP PUSH1 0x0 PUSH2 0x69A DUP9 DUP5 PUSH2 0x10B9 JUMP JUMPDEST SWAP1 POP DUP6 DUP3 LT ISZERO DUP1 ISZERO PUSH2 0x6AC JUMPI POP DUP7 DUP2 LT ISZERO JUMPDEST PUSH2 0x6B5 JUMPI PUSH1 0x0 DUP1 REVERT JUMPDEST CALLER PUSH1 0x0 SWAP1 DUP2 MSTORE PUSH1 0x6 PUSH1 0x20 MSTORE PUSH1 0x40 SWAP1 KECCAK256 SLOAD DUP9 GT ISZERO PUSH2 0x6D1 JUMPI PUSH1 0x0 DUP1 REVERT JUMPDEST DUP2 PUSH1 0x3 SLOAD LT ISZERO DUP1 ISZERO PUSH2 0x6E5 JUMPI POP DUP1 PUSH1 0x2 SLOAD LT ISZERO JUMPDEST PUSH2 0x6EE JUMPI PUSH1 0x0 DUP1 REVERT JUMPDEST PUSH1 0x0 SLOAD PUSH1 0x40 MLOAD PUSH4 0xA9059CBB PUSH1 0xE0 SHL DUP2 MSTORE CALLER PUSH1 0x4 DUP3 ADD MSTORE PUSH1 0x24 DUP2 ADD DUP4 SWAP1 MSTORE PUSH1 0x1 PUSH1 0x1 PUSH1 0xA0 SHL SUB SWAP1 SWAP2 AND SWAP1 PUSH4 0xA9059CBB SWAP1 PUSH1 0x44 ADD PUSH1 0x20 PUSH1 0x40 MLOAD DUP1 DUP4 SUB DUP2 PUSH1 0x0 DUP8 GAS CALL ISZERO DUP1 ISZERO PUSH2 0x73F JUMPI RETURNDATASIZE PUSH1 0x0 DUP1 RETURNDATACOPY RETURNDATASIZE PUSH1 0x0 REVERT JUMPDEST POP POP POP POP PUSH1 0x40 MLOAD RETURNDATASIZE PUSH1 0x1F NOT PUSH1 0x1F DUP3 ADD AND DUP3 ADD DUP1 PUSH1 0x40 MSTORE POP DUP2 ADD SWAP1 PUSH2 0x763 SWAP2 SWAP1 PUSH2 0x1097 JUMP JUMPDEST POP PUSH1 0x40 MLOAD CALLER SWAP1 DUP2 SWAP1 DUP5 ISZERO PUSH2 0x8FC MUL SWAP1 DUP6 SWAP1 PUSH1 0x0 DUP2 DUP2 DUP2 DUP6 DUP9 DUP9 CALL SWAP4 POP POP POP POP ISZERO DUP1 ISZERO PUSH2 0x793 JUMPI RETURNDATASIZE PUSH1 0x0 DUP1 RETURNDATACOPY RETURNDATASIZE PUSH1 0x0 REVERT JUMPDEST POP CALLER PUSH1 0x0 SWAP1 DUP2 MSTORE PUSH1 0x6 PUSH1 0x20 MSTORE PUSH1 0x40 DUP2 KECCAK256 DUP1 SLOAD DUP12 SWAP3 SWAP1 PUSH2 0x7B3 SWAP1 DUP5 SWAP1 PUSH2 0x1058 JUMP JUMPDEST SWAP3 POP POP DUP2 SWAP1 SSTORE POP DUP9 PUSH1 0x7 PUSH1 0x0 DUP3 DUP3 SLOAD PUSH2 0x7CC SWAP2 SWAP1 PUSH2 0x1058 JUMP JUMPDEST SWAP3 POP POP DUP2 SWAP1 SSTORE POP DUP2 PUSH1 0x2 PUSH1 0x0 DUP3 DUP3 SLOAD PUSH2 0x7E5 SWAP2 SWAP1 PUSH2 0x1058 JUMP JUMPDEST SWAP3 POP POP DUP2 SWAP1 SSTORE POP DUP3 PUSH1 0x3 PUSH1 0x0 DUP3 DUP3 SLOAD PUSH2 0x7FE SWAP2 SWAP1 PUSH2 0x1058 JUMP JUMPDEST SWAP1 SWAP2 SSTORE POP POP PUSH1 0x3 SLOAD PUSH1 0x2 SLOAD PUSH2 0x813 SWAP2 SWAP1 PUSH2 0x10B9 JUMP JUMPDEST PUSH1 0x5 SSTORE POP SWAP8 SWAP1 SWAP7 POP SWAP5 POP POP POP POP POP JUMP JUMPDEST PUSH1 0x0 DUP1 PUSH1 0x0 PUSH1 0x7 SLOAD PUSH1 0x2 SLOAD PUSH2 0x838 SWAP2 SWAP1 PUSH2 0x10E6 JUMP JUMPDEST SWAP1 POP PUSH1 0x0 PUSH1 0x7 SLOAD DUP8 PUSH1 0x3 SLOAD PUSH2 0x84D SWAP2 SWAP1 PUSH2 0x10B9 JUMP JUMPDEST PUSH2 0x857 SWAP2 SWAP1 PUSH2 0x10E6 JUMP JUMPDEST SWAP1 POP PUSH1 0x0 PUSH2 0x865 DUP9 DUP5 PUSH2 0x10B9 JUMP JUMPDEST SWAP1 POP DUP6 DUP3 GT ISZERO DUP1 ISZERO PUSH2 0x877 JUMPI POP DUP7 DUP2 GT ISZERO JUMPDEST PUSH2 0x880 JUMPI PUSH1 0x0 DUP1 REVERT JUMPDEST PUSH1 0x0 SLOAD PUSH1 0x40 MLOAD PUSH4 0x6EB1769F PUSH1 0xE1 SHL DUP2 MSTORE CALLER PUSH1 0x4 DUP3 ADD MSTORE ADDRESS PUSH1 0x24 DUP3 ADD MSTORE DUP9 SWAP2 PUSH1 0x1 PUSH1 0x1 PUSH1 0xA0 SHL SUB AND SWAP1 PUSH4 0xDD62ED3E SWAP1 PUSH1 0x44 ADD PUSH1 0x20 PUSH1 0x40 MLOAD DUP1 DUP4 SUB DUP2 DUP7 GAS STATICCALL ISZERO DUP1 ISZERO PUSH2 0x8CE JUMPI RETURNDATASIZE PUSH1 0x0 DUP1 RETURNDATACOPY RETURNDATASIZE PUSH1 0x0 REVERT JUMPDEST POP POP POP POP PUSH1 0x40 MLOAD RETURNDATASIZE PUSH1 0x1F NOT PUSH1 0x1F DUP3 ADD AND DUP3 ADD DUP1 PUSH1 0x40 MSTORE POP DUP2 ADD SWAP1 PUSH2 0x8F2 SWAP2 SWAP1 PUSH2 0x107E JUMP JUMPDEST LT ISZERO PUSH2 0x8FD JUMPI PUSH1 0x0 DUP1 REVERT JUMPDEST DUP6 CALLVALUE LT ISZERO PUSH2 0x90A JUMPI PUSH1 0x0 DUP1 REVERT JUMPDEST PUSH1 0x0 SLOAD PUSH1 0x40 MLOAD PUSH4 0x23B872DD PUSH1 0xE0 SHL DUP2 MSTORE CALLER PUSH1 0x4 DUP3 ADD MSTORE ADDRESS PUSH1 0x24 DUP3 ADD MSTORE PUSH1 0x44 DUP2 ADD DUP4 SWAP1 MSTORE PUSH1 0x1 PUSH1 0x1 PUSH1 0xA0 SHL SUB SWAP1 SWAP2 AND SWAP1 PUSH4 0x23B872DD SWAP1 PUSH1 0x64 ADD PUSH1 0x20 PUSH1 0x40 MLOAD DUP1 DUP4 SUB DUP2 PUSH1 0x0 DUP8 GAS CALL ISZERO DUP1 ISZERO PUSH2 0x961 JUMPI RETURNDATASIZE PUSH1 0x0 DUP1 RETURNDATACOPY RETURNDATASIZE PUSH1 0x0 REVERT JUMPDEST POP POP POP POP PUSH1 0x40 MLOAD RETURNDATASIZE PUSH1 0x1F NOT PUSH1 0x1F DUP3 ADD AND DUP3 ADD DUP1 PUSH1 0x40 MSTORE POP DUP2 ADD SWAP1 PUSH2 0x985 SWAP2 SWAP1 PUSH2 0x1097 JUMP JUMPDEST PUSH2 0x98E JUMPI PUSH1 0x0 DUP1 REVERT JUMPDEST CALLER DUP1 PUSH2 0x8FC PUSH2 0x99D DUP6 CALLVALUE PUSH2 0x1058 JUMP JUMPDEST PUSH1 0x40 MLOAD DUP2 ISZERO SWAP1 SWAP3 MUL SWAP2 PUSH1 0x0 DUP2 DUP2 DUP2 DUP6 DUP9 DUP9 CALL SWAP4 POP POP POP POP ISZERO DUP1 ISZERO PUSH2 0x9C5 JUMPI RETURNDATASIZE PUSH1 0x0 DUP1 RETURNDATACOPY RETURNDATASIZE PUSH1 0x0 REVERT JUMPDEST POP CALLER PUSH1 0x0 SWAP1 DUP2 MSTORE PUSH1 0x6 PUSH1 0x20 MSTORE PUSH1 0x40 SWAP1 KECCAK256 SLOAD ISZERO PUSH2 0xA05 JUMPI CALLER PUSH1 0x0 SWAP1 DUP2 MSTORE PUSH1 0x6 PUSH1 0x20 MSTORE PUSH1 0x40 DUP2 KECCAK256 DUP1 SLOAD DUP12 SWAP3 SWAP1 PUSH2 0x9FA SWAP1 DUP5 SWAP1 PUSH2 0x106B JUMP JUMPDEST SWAP1 SWAP2 SSTORE POP PUSH2 0xA18 SWAP1 POP JUMP JUMPDEST CALLER PUSH1 0x0 SWAP1 DUP2 MSTORE PUSH1 0x6 PUSH1 0x20 MSTORE PUSH1 0x40 SWAP1 KECCAK256 DUP10 SWAP1 SSTORE JUMPDEST DUP9 PUSH1 0x7 PUSH1 0x0 DUP3 DUP3 SLOAD PUSH2 0xA2A SWAP2 SWAP1 PUSH2 0x106B JUMP JUMPDEST SWAP3 POP POP DUP2 SWAP1 SSTORE POP DUP2 PUSH1 0x2 PUSH1 0x0 DUP3 DUP3 SLOAD PUSH2 0xA43 SWAP2 SWAP1 PUSH2 0x106B JUMP JUMPDEST SWAP3 POP POP DUP2 SWAP1 SSTORE POP DUP3 PUSH1 0x3 PUSH1 0x0 DUP3 DUP3 SLOAD PUSH2 0x7FE SWAP2 SWAP1 PUSH2 0x106B JUMP JUMPDEST PUSH1 0x0 DUP1 PUSH1 0x0 DUP1 PUSH2 0xA6B DUP6 PUSH2 0xE5A JUMP JUMPDEST SWAP1 POP PUSH1 0x0 PUSH1 0x3 SLOAD DUP8 PUSH1 0x2 SLOAD PUSH2 0xA80 SWAP2 SWAP1 PUSH2 0x1058 JUMP JUMPDEST PUSH1 0x5 SLOAD PUSH2 0xA8D SWAP2 SWAP1 PUSH2 0x10E6 JUMP JUMPDEST PUSH2 0xA97 SWAP2 SWAP1 PUSH2 0x1058 JUMP JUMPDEST SWAP1 POP PUSH1 0x0 PUSH2 0xAA5 DUP4 DUP9 PUSH2 0x1058 JUMP JUMPDEST SWAP1 POP DUP1 DUP3 GT ISZERO PUSH2 0xAB4 JUMPI PUSH1 0x0 DUP1 REVERT JUMPDEST PUSH1 0x0 PUSH2 0xABF DUP10 PUSH2 0xE5A JUMP JUMPDEST SWAP1 POP PUSH1 0x0 PUSH2 0xACD DUP3 DUP12 PUSH2 0x1058 JUMP JUMPDEST SWAP1 POP PUSH1 0x2 SLOAD DUP2 GT ISZERO PUSH2 0xADE JUMPI PUSH1 0x0 DUP1 REVERT JUMPDEST PUSH1 0x0 SLOAD PUSH1 0x40 MLOAD PUSH4 0xA9059CBB PUSH1 0xE0 SHL DUP2 MSTORE CALLER PUSH1 0x4 DUP3 ADD MSTORE PUSH1 0x24 DUP2 ADD DUP4 SWAP1 MSTORE PUSH1 0x1 PUSH1 0x1 PUSH1 0xA0 SHL SUB SWAP1 SWAP2 AND SWAP1 PUSH4 0xA9059CBB SWAP1 PUSH1 0x44 ADD PUSH1 0x20 PUSH1 0x40 MLOAD DUP1 DUP4 SUB DUP2 PUSH1 0x0 DUP8 GAS CALL ISZERO DUP1 ISZERO PUSH2 0xB2F JUMPI RETURNDATASIZE PUSH1 0x0 DUP1 RETURNDATACOPY RETURNDATASIZE PUSH1 0x0 REVERT JUMPDEST POP POP POP POP PUSH1 0x40 MLOAD RETURNDATASIZE PUSH1 0x1F NOT PUSH1 0x1F DUP3 ADD AND DUP3 ADD DUP1 PUSH1 0x40 MSTORE POP DUP2 ADD SWAP1 PUSH2 0xB53 SWAP2 SWAP1 PUSH2 0x1097 JUMP JUMPDEST PUSH2 0xB5C JUMPI PUSH1 0x0 DUP1 REVERT JUMPDEST PUSH1 0x0 PUSH2 0xB68 DUP6 DUP6 PUSH2 0x1058 JUMP JUMPDEST SWAP1 POP DUP1 ISZERO PUSH2 0xBA2 JUMPI PUSH1 0x40 MLOAD CALLER SWAP1 DUP2 SWAP1 DUP4 ISZERO PUSH2 0x8FC MUL SWAP1 DUP5 SWAP1 PUSH1 0x0 DUP2 DUP2 DUP2 DUP6 DUP9 DUP9 CALL SWAP4 POP POP POP POP ISZERO DUP1 ISZERO PUSH2 0xB9F JUMPI RETURNDATASIZE PUSH1 0x0 DUP1 RETURNDATACOPY RETURNDATASIZE PUSH1 0x0 REVERT JUMPDEST POP POP JUMPDEST DUP2 PUSH1 0x2 PUSH1 0x0 DUP3 DUP3 SLOAD PUSH2 0xBB4 SWAP2 SWAP1 PUSH2 0x1058 JUMP JUMPDEST SWAP3 POP POP DUP2 SWAP1 SSTORE POP DUP10 PUSH1 0x3 PUSH1 0x0 DUP3 DUP3 SLOAD PUSH2 0xBCD SWAP2 SWAP1 PUSH2 0x106B JUMP JUMPDEST SWAP1 SWAP2 SSTORE POP POP PUSH1 0x3 SLOAD PUSH1 0x2 SLOAD PUSH2 0xBE2 SWAP2 SWAP1 PUSH2 0x10B9 JUMP JUMPDEST PUSH1 0x5 SSTORE POP SWAP2 SWAP10 SWAP4 SWAP9 POP SWAP7 POP SWAP2 SWAP5 POP POP POP POP POP JUMP JUMPDEST PUSH1 0x0 PUSH1 0x1 PUSH1 0x1 PUSH1 0xA0 SHL SUB DUP4 AND ISZERO DUP1 ISZERO SWAP1 PUSH2 0xC0F JUMPI POP CALLER ISZERO ISZERO JUMPDEST PUSH2 0xC18 JUMPI PUSH1 0x0 DUP1 REVERT JUMPDEST CALLER PUSH1 0x0 SWAP1 DUP2 MSTORE PUSH1 0x6 PUSH1 0x20 MSTORE PUSH1 0x40 SWAP1 KECCAK256 SLOAD DUP3 GT DUP1 ISZERO SWAP1 PUSH2 0xC35 JUMPI POP PUSH1 0x1 JUMPDEST PUSH2 0xC3E JUMPI PUSH1 0x0 DUP1 REVERT JUMPDEST CALLER PUSH1 0x0 SWAP1 DUP2 MSTORE PUSH1 0x6 PUSH1 0x20 MSTORE PUSH1 0x40 DUP2 KECCAK256 DUP1 SLOAD DUP5 SWAP3 SWAP1 PUSH2 0xC5D SWAP1 DUP5 SWAP1 PUSH2 0x1058 JUMP JUMPDEST SWAP1 SWAP2 SSTORE POP POP PUSH1 0x1 PUSH1 0x1 PUSH1 0xA0 SHL SUB DUP4 AND PUSH1 0x0 SWAP1 DUP2 MSTORE PUSH1 0x6 PUSH1 0x20 MSTORE PUSH1 0x40 DUP2 KECCAK256 DUP1 SLOAD DUP5 SWAP3 SWAP1 PUSH2 0xC8A SWAP1 DUP5 SWAP1 PUSH2 0x106B JUMP JUMPDEST SWAP1 SWAP2 SSTORE POP POP PUSH1 0x40 MLOAD DUP3 DUP2 MSTORE PUSH1 0x1 PUSH1 0x1 PUSH1 0xA0 SHL SUB DUP5 AND SWAP1 CALLER SWAP1 PUSH32 0xDDF252AD1BE2C89B69C2B068FC378DAA952BA7F163C4A11628F55A4DF523B3EF SWAP1 PUSH1 0x20 ADD PUSH1 0x40 MLOAD DUP1 SWAP2 SUB SWAP1 LOG3 POP PUSH1 0x1 SWAP3 SWAP2 POP POP JUMP JUMPDEST PUSH1 0x0 DUP1 PUSH1 0x0 DUP1 PUSH2 0xCE7 DUP7 PUSH2 0xE5A JUMP JUMPDEST SWAP1 POP PUSH1 0x0 PUSH2 0xCF5 DUP3 DUP9 PUSH2 0x1058 JUMP JUMPDEST SWAP1 POP PUSH1 0x0 DUP2 PUSH1 0x2 SLOAD PUSH2 0xD07 SWAP2 SWAP1 PUSH2 0x106B JUMP JUMPDEST PUSH1 0x5 SLOAD PUSH2 0xD14 SWAP2 SWAP1 PUSH2 0x10E6 JUMP JUMPDEST PUSH1 0x3 SLOAD PUSH2 0xD21 SWAP2 SWAP1 PUSH2 0x1058 JUMP JUMPDEST SWAP1 POP PUSH1 0x0 PUSH2 0xD2E DUP3 PUSH2 0xE5A JUMP JUMPDEST SWAP1 POP PUSH1 0x0 PUSH2 0xD3C DUP3 DUP5 PUSH2 0x1058 JUMP JUMPDEST SWAP1 POP PUSH1 0x3 SLOAD DUP2 GT ISZERO PUSH2 0xD4D JUMPI PUSH1 0x0 DUP1 REVERT JUMPDEST DUP9 DUP2 LT ISZERO PUSH2 0xD5A JUMPI PUSH1 0x0 DUP1 REVERT JUMPDEST PUSH1 0x0 SLOAD PUSH1 0x40 MLOAD PUSH4 0x23B872DD PUSH1 0xE0 SHL DUP2 MSTORE CALLER PUSH1 0x4 DUP3 ADD MSTORE ADDRESS PUSH1 0x24 DUP3 ADD MSTORE PUSH1 0x44 DUP2 ADD DUP13 SWAP1 MSTORE PUSH1 0x1 PUSH1 0x1 PUSH1 0xA0 SHL SUB SWAP1 SWAP2 AND SWAP1 PUSH4 0x23B872DD SWAP1 PUSH1 0x64 ADD PUSH1 0x20 PUSH1 0x40 MLOAD DUP1 DUP4 SUB DUP2 PUSH1 0x0 DUP8 GAS CALL ISZERO DUP1 ISZERO PUSH2 0xDB1 JUMPI RETURNDATASIZE PUSH1 0x0 DUP1 RETURNDATACOPY RETURNDATASIZE PUSH1 0x0 REVERT JUMPDEST POP POP POP POP PUSH1 0x40 MLOAD RETURNDATASIZE PUSH1 0x1F NOT PUSH1 0x1F DUP3 ADD AND DUP3 ADD DUP1 PUSH1 0x40 MSTORE POP DUP2 ADD SWAP1 PUSH2 0xDD5 SWAP2 SWAP1 PUSH2 0x1097 JUMP JUMPDEST POP PUSH1 0x40 MLOAD CALLER SWAP1 DUP2 SWAP1 DUP4 ISZERO PUSH2 0x8FC MUL SWAP1 DUP5 SWAP1 PUSH1 0x0 DUP2 DUP2 DUP2 DUP6 DUP9 DUP9 CALL SWAP4 POP POP POP POP ISZERO DUP1 ISZERO PUSH2 0xE05 JUMPI RETURNDATASIZE PUSH1 0x0 DUP1 RETURNDATACOPY RETURNDATASIZE PUSH1 0x0 REVERT JUMPDEST POP DUP11 PUSH1 0x2 PUSH1 0x0 DUP3 DUP3 SLOAD PUSH2 0xE18 SWAP2 SWAP1 PUSH2 0x106B JUMP JUMPDEST SWAP3 POP POP DUP2 SWAP1 SSTORE POP DUP2 PUSH1 0x3 PUSH1 0x0 DUP3 DUP3 SLOAD PUSH2 0xE31 SWAP2 SWAP1 PUSH2 0x1058 JUMP JUMPDEST SWAP1 SWAP2 SSTORE POP POP PUSH1 0x3 SLOAD PUSH1 0x2 SLOAD PUSH2 0xE46 SWAP2 SWAP1 PUSH2 0x10B9 JUMP JUMPDEST PUSH1 0x5 SSTORE POP SWAP7 POP SWAP5 POP SWAP2 SWAP3 POP POP POP SWAP3 POP SWAP3 POP SWAP3 JUMP JUMPDEST PUSH1 0x1 SLOAD PUSH1 0x0 SWAP1 DUP2 SWAP1 PUSH1 0x64 SWAP1 PUSH2 0xE6F SWAP1 DUP6 PUSH2 0x10B9 JUMP JUMPDEST PUSH2 0xE79 SWAP2 SWAP1 PUSH2 0x10FA JUMP JUMPDEST PUSH1 0x0 SUB PUSH2 0xEA1 JUMPI PUSH1 0x64 PUSH1 0x1 SLOAD DUP5 PUSH2 0xE90 SWAP2 SWAP1 PUSH2 0x10B9 JUMP JUMPDEST PUSH2 0xE9A SWAP2 SWAP1 PUSH2 0x10E6 JUMP JUMPDEST SWAP1 POP PUSH2 0x393 JUMP JUMPDEST PUSH1 0x64 PUSH1 0x1 SLOAD DUP5 PUSH2 0xEB1 SWAP2 SWAP1 PUSH2 0x10B9 JUMP JUMPDEST PUSH2 0xEBB SWAP2 SWAP1 PUSH2 0x10E6 JUMP JUMPDEST PUSH2 0xEC6 SWAP1 PUSH1 0x1 PUSH2 0x106B JUMP JUMPDEST SWAP4 SWAP3 POP POP POP JUMP JUMPDEST PUSH1 0x1 PUSH1 0x1 PUSH1 0xA0 SHL SUB DUP2 AND DUP2 EQ PUSH2 0xEE2 JUMPI PUSH1 0x0 DUP1 REVERT JUMPDEST POP JUMP JUMPDEST PUSH1 0x0 DUP1 PUSH1 0x40 DUP4 DUP6 SUB SLT ISZERO PUSH2 0xEF8 JUMPI PUSH1 0x0 DUP1 REVERT JUMPDEST DUP3 CALLDATALOAD PUSH2 0xF03 DUP2 PUSH2 0xECD JUMP JUMPDEST SWAP2 POP PUSH1 0x20 DUP4 ADD CALLDATALOAD PUSH2 0xF13 DUP2 PUSH2 0xECD JUMP JUMPDEST DUP1 SWAP2 POP POP SWAP3 POP SWAP3 SWAP1 POP JUMP JUMPDEST PUSH1 0x0 DUP1 PUSH1 0x40 DUP4 DUP6 SUB SLT ISZERO PUSH2 0xF31 JUMPI PUSH1 0x0 DUP1 REVERT JUMPDEST DUP3 CALLDATALOAD PUSH2 0xF3C DUP2 PUSH2 0xECD JUMP JUMPDEST SWAP5 PUSH1 0x20 SWAP4 SWAP1 SWAP4 ADD CALLDATALOAD SWAP4 POP POP POP JUMP JUMPDEST PUSH1 0x0 DUP1 PUSH1 0x0 PUSH1 0x60 DUP5 DUP7 SUB SLT ISZERO PUSH2 0xF5F JUMPI PUSH1 0x0 DUP1 REVERT JUMPDEST DUP4 CALLDATALOAD PUSH2 0xF6A DUP2 PUSH2 0xECD JUMP JUMPDEST SWAP3 POP PUSH1 0x20 DUP5 ADD CALLDATALOAD PUSH2 0xF7A DUP2 PUSH2 0xECD JUMP JUMPDEST SWAP3 SWAP6 SWAP3 SWAP5 POP POP POP PUSH1 0x40 SWAP2 SWAP1 SWAP2 ADD CALLDATALOAD SWAP1 JUMP JUMPDEST PUSH1 0x0 DUP1 PUSH1 0x0 DUP1 PUSH1 0x80 DUP6 DUP8 SUB SLT ISZERO PUSH2 0xFA1 JUMPI PUSH1 0x0 DUP1 REVERT JUMPDEST DUP5 CALLDATALOAD PUSH2 0xFAC DUP2 PUSH2 0xECD JUMP JUMPDEST SWAP4 POP PUSH1 0x20 DUP6 ADD CALLDATALOAD PUSH1 0xFF DUP2 AND DUP2 EQ PUSH2 0xFC2 JUMPI PUSH1 0x0 DUP1 REVERT JUMPDEST SWAP4 SWAP7 SWAP4 SWAP6 POP POP POP POP PUSH1 0x40 DUP3 ADD CALLDATALOAD SWAP2 PUSH1 0x60 ADD CALLDATALOAD SWAP1 JUMP JUMPDEST PUSH1 0x0 DUP1 PUSH1 0x0 PUSH1 0x60 DUP5 DUP7 SUB SLT ISZERO PUSH2 0xFEC JUMPI PUSH1 0x0 DUP1 REVERT JUMPDEST POP POP DUP2 CALLDATALOAD SWAP4 PUSH1 0x20 DUP4 ADD CALLDATALOAD SWAP4 POP PUSH1 0x40 SWAP1 SWAP3 ADD CALLDATALOAD SWAP2 SWAP1 POP JUMP JUMPDEST PUSH1 0x0 PUSH1 0x20 DUP3 DUP5 SUB SLT ISZERO PUSH2 0x1015 JUMPI PUSH1 0x0 DUP1 REVERT JUMPDEST DUP2 CALLDATALOAD PUSH2 0xEC6 DUP2 PUSH2 0xECD JUMP JUMPDEST PUSH1 0x0 DUP1 PUSH1 0x40 DUP4 DUP6 SUB SLT ISZERO PUSH2 0x1033 JUMPI PUSH1 0x0 DUP1 REVERT JUMPDEST POP POP DUP1 CALLDATALOAD SWAP3 PUSH1 0x20 SWAP1 SWAP2 ADD CALLDATALOAD SWAP2 POP JUMP JUMPDEST PUSH4 0x4E487B71 PUSH1 0xE0 SHL PUSH1 0x0 MSTORE PUSH1 0x11 PUSH1 0x4 MSTORE PUSH1 0x24 PUSH1 0x0 REVERT JUMPDEST DUP2 DUP2 SUB DUP2 DUP2 GT ISZERO PUSH2 0x393 JUMPI PUSH2 0x393 PUSH2 0x1042 JUMP JUMPDEST DUP1 DUP3 ADD DUP1 DUP3 GT ISZERO PUSH2 0x393 JUMPI PUSH2 0x393 PUSH2 0x1042 JUMP JUMPDEST PUSH1 0x0 PUSH1 0x20 DUP3 DUP5 SUB SLT ISZERO PUSH2 0x1090 JUMPI PUSH1 0x0 DUP1 REVERT JUMPDEST POP MLOAD SWAP2 SWAP1 POP JUMP JUMPDEST PUSH1 0x0 PUSH1 0x20 DUP3 DUP5 SUB SLT ISZERO PUSH2 0x10A9 JUMPI PUSH1 0x0 DUP1 REVERT JUMPDEST DUP2 MLOAD DUP1 ISZERO ISZERO DUP2 EQ PUSH2 0xEC6 JUMPI PUSH1 0x0 DUP1 REVERT JUMPDEST DUP1 DUP3 MUL DUP2 ISZERO DUP3 DUP3 DIV DUP5 EQ OR PUSH2 0x393 JUMPI PUSH2 0x393 PUSH2 0x1042 JUMP JUMPDEST PUSH4 0x4E487B71 PUSH1 0xE0 SHL PUSH1 0x0 MSTORE PUSH1 0x12 PUSH1 0x4 MSTORE PUSH1 0x24 PUSH1 0x0 REVERT JUMPDEST PUSH1 0x0 DUP3 PUSH2 0x10F5 JUMPI PUSH2 0x10F5 PUSH2 0x10D0 JUMP JUMPDEST POP DIV SWAP1 JUMP JUMPDEST PUSH1 0x0 DUP3 PUSH2 0x1109 JUMPI PUSH2 0x1109 PUSH2 0x10D0 JUMP JUMPDEST POP MOD SWAP1 JUMP INVALID LOG2 PUSH5 0x6970667358 0x22 SLT KECCAK256 0xA8 SSTORE PC 0xEA 0x23 PUSH23 0x74F8CDDD3093F5E4B430BF0139C2558AAD1AA5ECE8E9D7 COINBASE SGT CALLDATASIZE PUSH5 0x736F6C6343 STOP ADDMOD GT STOP CALLER ",
  "sha1": "9233fdf95eb0bcb728bb9d19d96a36f87090ee8f",
  "source": "// SPDX-License-Identifier: MIT\npragma solidity ^0.8.0;\n\nimport '../interfaces/IERC20.sol';\nimport '../interfaces/IExchange.sol';\n\ncontract RUExchange is IExchange {\n\n    //The token on the exchange\n    IERC20 private ruToken;\n\n    //fee percentage\n    uint private fee;\n\n    //initial supply of tokens\n    uint private tokSupply;\n\n    //initial ETH supply\n    uint private ETHSupply;\n\n    //Owner of the AMM exchange\n    address private AMMowner;\n\n    //The constant to be maintained\n    uint private k;\n\n    //Dictionary of Liquidity-token balances\n    mapping(address => uint256) public _balances;\n\n    //Number of LQTs\n    uint private LQTokens;\n\n    //Dictionary of allowances\n    mapping(address => mapping(address => uint256)) public _allowances;\n\n\n    //Owner of the AMM exchange\n    constructor() {\n        AMMowner = msg.sender;\n    }\n\n    function initialize(IERC20 _RUXtoken, uint8 _feePercent, uint initialTOK, uint initialETH) override public payable returns(uint) {\n        // TODO: Implement\n        require(AMMowner == msg.sender);\n        ruToken = _RUXtoken;\n        require(ruToken.allowance(AMMowner, address(this)) >= initialTOK);\n        require(ruToken.transferFrom(AMMowner, address(this), initialTOK));\n        fee = _feePercent;\n        k = initialETH * initialTOK;\n        tokSupply = initialTOK;\n        ETHSupply = initialETH;\n        _balances[msg.sender] = initialTOK;\n        LQTokens = initialTOK;\n    }\n\n    /**\n     * Returns the current number of tokens in the liquidity pool.\n     */\n    function tokenBalance() external view returns(uint) {\n        // TODO: Implement\n        return tokSupply;\n    }\n\n    /**\n     * Calculate the fees so that it rounds up.\n     */\n    function calculateFee(uint amount) view private returns(uint) {\n        uint calculatedFee = 0;\n        if ((amount * fee) % 100 == 0) {\n            calculatedFee = ((amount * fee) / 100);\n        }\n        else {\n            calculatedFee = ((amount * fee) / 100) + 1;\n        }\n        return calculatedFee;\n    }\n    \n\n   /**\n     * @dev Swap ETH for tokens.\n     * Buy `amount` tokens as long as the total price is at most `maxPrice`. revert if this is impossible.\n     * Note that the fee is taken in *both* tokens and ETH. The fee percentage is taken from `amount` tokens \n     * (rounded up) *after* they are bought, and taken from the ETH sent (rounded up) *before* the purchase.\n     * @return Returns the actual total cost in ETH including fee.\n     */\n    function buyTokens(uint amount, uint maxPrice) override public payable returns (uint,uint,uint) {\n        // TODO: Implement\n\n        //exchange first takes fee in eth\n        uint ETHFee = calculateFee(maxPrice);\n        uint rawPrice = (k/(tokSupply - amount)) - ETHSupply;\n        uint ethToSpend = maxPrice - ETHFee;\n        require(rawPrice <= ethToSpend);\n\n        uint tokenFee = calculateFee(amount);      \n        uint tokensToSell = amount - tokenFee;\n        require(tokensToSell <= tokSupply);\n\n        // uint offerPrice = rawPrice + ETHFee;\n        // require(offerPrice <= maxPrice);\n        require(ruToken.transfer(msg.sender, tokensToSell));\n        uint retainedETH = ethToSpend - rawPrice;\n        if (retainedETH > 0){\n        address payable receiver = payable(msg.sender);\n        receiver.transfer(retainedETH);\n        }\n\n        tokSupply -= tokensToSell;\n        ETHSupply += maxPrice;\n        k = tokSupply * ETHSupply;\n\n        return (ethToSpend, ETHFee, tokenFee);\n\n\n    }\n\n    /**\n     * @dev Swap tokens for ETH\n     * Sell `amount` tokens as long as the total price is at least `minPrice`. revert if this is impossible.\n     * Note that the fee is taken in *both* tokens and ETH. The fee percentage is taken from `amount` tokens \n     * (rounded up) *before* selling, and taken from the ETH returned (rounded up) *after* selling.\n     * @return Returns a tuple with the actual total value in ETH minus the fee, the eth fee and the token fee.\n     */\n    function sellTokens(uint amount, uint minPrice) override public returns (uint, uint, uint) {\n        // TODO: Implement\n\n        uint tokenFee = calculateFee(amount);      \n        uint tokensToBuy = amount - tokenFee;\n        uint rawPrice = ETHSupply - (k / (tokSupply + tokensToBuy)); //May switch token Fee with TokensToBuy if error exists\n        uint ETHFee = calculateFee(rawPrice);\n\n        \n        uint offerPrice = rawPrice - ETHFee;\n        require(offerPrice <= ETHSupply);\n        require(offerPrice >= minPrice);\n\n        //TODO: send amount of tokens to contract, send amount of ETH to sender. Round up \n\n        ruToken.transferFrom(msg.sender, address(this), amount);\n        address payable receiver = payable(msg.sender);\n        receiver.transfer(offerPrice);\n\n        tokSupply += amount;\n        ETHSupply -= offerPrice;\n        k = tokSupply * ETHSupply;\n\n        return (offerPrice, ETHFee, tokenFee);\n    }\n\n    /**\n     * @dev mint `amount` liquidity tokens, as long as the total number of tokens spent is at most `maxTOK`\n     * and the total amount of ETH spent is `maxETH`. The token allowance for the exchange address must be at least `maxTOK`,\n     * and the msg value at least `maxETH`.\n     * Unused funds will be returned to the sender.\n     * @return returns a tuple consisting of (token_spent, eth_spent). \n     */\n    function mintLiquidityTokens(uint amount, uint maxTOK, uint maxETH) public payable returns (uint,uint) {\n        // TODO: Implement\n        uint tokUnit = tokSupply / LQTokens ;\n\n        uint ethNeeded = (ETHSupply * amount) / LQTokens;\n        uint tokNeeded = tokUnit * amount;\n\n        require(ethNeeded <= maxETH && tokNeeded <= maxTOK);\n        require(ruToken.allowance(msg.sender, address(this)) >= maxTOK);\n        require(msg.value >= maxETH);\n\n        require(ruToken.transferFrom(msg.sender, address(this), tokNeeded));\n        address payable receiver = payable(msg.sender);\n        receiver.transfer(msg.value - ethNeeded);\n\n        if (_balances[msg.sender] > 0){\n            _balances[msg.sender] += amount;\n        } else {\n            _balances[msg.sender] = amount;\n        }\n\n        LQTokens += amount;\n        tokSupply += tokNeeded;\n        ETHSupply += ethNeeded;\n        k = tokSupply*ETHSupply;\n\n        return (tokNeeded, ethNeeded);\n\n\n    }\n\n    /**\n     * @dev burn `amount` liquidity tokens, as long as this will result in at least minTOK tokens and at least minETH eth being generated.\n     * The resulting tokens and ETH will be credited to the sender.\n     * @return Returns a tuple consisting of (token_credited, eth_credited). \n     */\n    function burnLiquidityTokens(uint amount, uint minTOK, uint minETH) override public payable returns (uint,uint) {\n        // TODO: Implement\n        uint tokUnit = tokSupply / LQTokens;\n\n        uint ethGiven = (ETHSupply * amount) / LQTokens;\n        uint tokGiven = tokUnit * amount;\n\n        require(ethGiven >= minETH && tokGiven >= minTOK);\n        require(_balances[msg.sender] >= amount);\n        require(ETHSupply >= ethGiven && tokSupply >= tokGiven);\n\n        ruToken.transfer(msg.sender, tokGiven);\n        address payable receiver = payable(msg.sender);\n        receiver.transfer(ethGiven);\n\n        _balances[msg.sender] -= amount;\n        LQTokens -= amount;\n        tokSupply -= tokGiven;\n        ETHSupply -= ethGiven;\n        k = tokSupply*ETHSupply;\n\n        return (tokGiven, ethGiven);\n\n    }\n\n    /**\n     * @dev Returns the amount of tokens in existence.\n     */\n    function totalSupply() external view returns (uint256) {\n        // TODO: Implement\n        return LQTokens;\n    }\n\n    /**\n     * @dev Returns the amount of tokens owned by `account`.\n     */\n    function balanceOf(address account) public view override returns (uint256) {\n        // TODO: Implement\n        return _balances[account];\n    }\n\n\n    /**\n     * @dev Moves `amount` tokens from the caller's account to `recipient`.\n     *\n     * Returns a boolean value indicating whether the operation succeeded.\n     *\n     * Emits a {Transfer} event.\n     */\n    function transfer(address recipient, uint256 amount) external override returns (bool) {\n        // TODO: Implement\n        require(recipient != address(0) && msg.sender != address(0));\n        require(_balances[msg.sender] >= amount && amount >= 0);\n        _balances[msg.sender] -= amount;\n        _balances[recipient] += amount;\n        \n        emit Transfer(msg.sender, recipient, amount);\n        return true;\n    }\n\n    /**\n     * @dev Returns the remaining number of tokens that `spender` will be\n     * allowed to spend on behalf of `owner` through {transferFrom}. This is\n     * zero by default.\n     *\n     * This value changes when {approve} or {transferFrom} are called.\n     */\n    function allowance(address owner, address spender) external view override returns (uint256) {\n        // TODO: Implement\n        return _allowances[owner][spender];\n    }\n\n    /**\n     * @dev Sets `amount` as the allowance of `spender` over the caller's tokens.\n     *\n     * Returns a boolean value indicating whether the operation succeeded.\n     *\n     * IMPORTANT: Beware that changing an allowance with this method brings the risk\n     * that someone may use both the old and the new allowance by unfortunate\n     * transaction ordering. One possible solution to mitigate this race\n     * condition is to first reduce the spender's allowance to 0 and set the\n     * desired value afterwards:\n     * https://github.com/ethereum/EIPs/issues/20#issuecomment-263524729\n     *\n     * Emits an {Approval} event.\n     */\n    function approve(address spender, uint256 amount) external override returns (bool) {\n        // TODO: Implement\n        require(amount >= 0);\n        _allowances[msg.sender][spender] = 0;\n        emit Approval(msg.sender, spender, amount);\n        _allowances[msg.sender][spender] = amount;\n\n        return true;\n    }\n\n    /**\n     * @dev Moves `amount` tokens from `sender` to `recipient` using the\n     * allowance mechanism. `amount` is then deducted from the caller's\n     * allowance.\n     *\n     * Returns a boolean value indicating whether the operation succeeded.\n     *\n     * Emits a {Transfer} event.\n     */\n    function transferFrom(address sender, address recipient, uint256 amount) external override returns (bool) {\n        // TODO: Implement\n        require(_balances[sender] >= amount && amount >= 0 && _allowances[sender][msg.sender] >= amount);\n        _balances[sender] -= amount;\n        _balances[recipient] += amount;\n        _allowances[sender][msg.sender] -= amount;\n        emit Transfer(sender, recipient, amount);\n        return true;\n    }\n}",
  "sourcePath": "contracts/ru_exchange.sol",
  "type": "contract"
}