{
  "abi": [
    {
      "inputs": [
        {
          "internalType": "uint256",
          "name": "_tokenPrice",
          "type": "uint256"
        },
        {
          "internalType": "uint256",
          "name": "_maxTokens",
          "type": "uint256"
        }
      ],
      "stateMutability": "nonpayable",
      "type": "constructor"
    },
    {
      "anonymous": false,
      "inputs": [
        {
          "indexed": true,
          "internalType": "address",
          "name": "owner",
          "type": "address"
        },
        {
          "indexed": true,
          "internalType": "address",
          "name": "spender",
          "type": "address"
        },
        {
          "indexed": false,
          "internalType": "uint256",
          "name": "value",
          "type": "uint256"
        }
      ],
      "name": "Approval",
      "type": "event"
    },
    {
      "anonymous": false,
      "inputs": [
        {
          "indexed": true,
          "internalType": "address",
          "name": "from",
          "type": "address"
        },
        {
          "indexed": true,
          "internalType": "address",
          "name": "to",
          "type": "address"
        },
        {
          "indexed": false,
          "internalType": "uint256",
          "name": "value",
          "type": "uint256"
        }
      ],
      "name": "Transfer",
      "type": "event"
    },
    {
      "inputs": [
        {
          "internalType": "address",
          "name": "",
          "type": "address"
        },
        {
          "internalType": "address",
          "name": "",
          "type": "address"
        }
      ],
      "name": "_allowances",
      "outputs": [
        {
          "internalType": "uint256",
          "name": "",
          "type": "uint256"
        }
      ],
      "stateMutability": "view",
      "type": "function"
    },
    {
      "inputs": [
        {
          "internalType": "address",
          "name": "",
          "type": "address"
        }
      ],
      "name": "_balances",
      "outputs": [
        {
          "internalType": "uint256",
          "name": "",
          "type": "uint256"
        }
      ],
      "stateMutability": "view",
      "type": "function"
    },
    {
      "inputs": [
        {
          "internalType": "address",
          "name": "owner",
          "type": "address"
        },
        {
          "internalType": "address",
          "name": "spender",
          "type": "address"
        }
      ],
      "name": "allowance",
      "outputs": [
        {
          "internalType": "uint256",
          "name": "",
          "type": "uint256"
        }
      ],
      "stateMutability": "view",
      "type": "function"
    },
    {
      "inputs": [
        {
          "internalType": "address",
          "name": "spender",
          "type": "address"
        },
        {
          "internalType": "uint256",
          "name": "amount",
          "type": "uint256"
        }
      ],
      "name": "approve",
      "outputs": [
        {
          "internalType": "bool",
          "name": "",
          "type": "bool"
        }
      ],
      "stateMutability": "nonpayable",
      "type": "function"
    },
    {
      "inputs": [
        {
          "internalType": "address",
          "name": "account",
          "type": "address"
        }
      ],
      "name": "balanceOf",
      "outputs": [
        {
          "internalType": "uint256",
          "name": "",
          "type": "uint256"
        }
      ],
      "stateMutability": "view",
      "type": "function"
    },
    {
      "inputs": [
        {
          "internalType": "uint256",
          "name": "amount",
          "type": "uint256"
        }
      ],
      "name": "burn",
      "outputs": [],
      "stateMutability": "nonpayable",
      "type": "function"
    },
    {
      "inputs": [],
      "name": "decimals",
      "outputs": [
        {
          "internalType": "uint8",
          "name": "",
          "type": "uint8"
        }
      ],
      "stateMutability": "pure",
      "type": "function"
    },
    {
      "inputs": [],
      "name": "maxTokens",
      "outputs": [
        {
          "internalType": "uint256",
          "name": "",
          "type": "uint256"
        }
      ],
      "stateMutability": "view",
      "type": "function"
    },
    {
      "inputs": [],
      "name": "mint",
      "outputs": [
        {
          "internalType": "uint256",
          "name": "",
          "type": "uint256"
        }
      ],
      "stateMutability": "payable",
      "type": "function"
    },
    {
      "inputs": [],
      "name": "name",
      "outputs": [
        {
          "internalType": "string",
          "name": "",
          "type": "string"
        }
      ],
      "stateMutability": "pure",
      "type": "function"
    },
    {
      "inputs": [],
      "name": "symbol",
      "outputs": [
        {
          "internalType": "string",
          "name": "",
          "type": "string"
        }
      ],
      "stateMutability": "pure",
      "type": "function"
    },
    {
      "inputs": [],
      "name": "tokenPrice",
      "outputs": [
        {
          "internalType": "uint256",
          "name": "",
          "type": "uint256"
        }
      ],
      "stateMutability": "view",
      "type": "function"
    },
    {
      "inputs": [],
      "name": "totalSupply",
      "outputs": [
        {
          "internalType": "uint256",
          "name": "",
          "type": "uint256"
        }
      ],
      "stateMutability": "view",
      "type": "function"
    },
    {
      "inputs": [],
      "name": "total_supply",
      "outputs": [
        {
          "internalType": "uint256",
          "name": "",
          "type": "uint256"
        }
      ],
      "stateMutability": "view",
      "type": "function"
    },
    {
      "inputs": [
        {
          "internalType": "address",
          "name": "recipient",
          "type": "address"
        },
        {
          "internalType": "uint256",
          "name": "amount",
          "type": "uint256"
        }
      ],
      "name": "transfer",
      "outputs": [
        {
          "internalType": "bool",
          "name": "",
          "type": "bool"
        }
      ],
      "stateMutability": "nonpayable",
      "type": "function"
    },
    {
      "inputs": [
        {
          "internalType": "address",
          "name": "sender",
          "type": "address"
        },
        {
          "internalType": "address",
          "name": "recipient",
          "type": "address"
        },
        {
          "internalType": "uint256",
          "name": "amount",
          "type": "uint256"
        }
      ],
      "name": "transferFrom",
      "outputs": [
        {
          "internalType": "bool",
          "name": "",
          "type": "bool"
        }
      ],
      "stateMutability": "nonpayable",
      "type": "function"
    }
  ],
  "bytecode": "6080604052600060045534801561001557600080fd5b50604051610a22380380610a2283398101604081905261003491610042565b600191909155600055610066565b6000806040838503121561005557600080fd5b505080516020909101519092909150565b6109ad806100756000396000f3fe6080604052600436106100f35760003560e01c806342966c681161008a57806395d89b411161005957806395d89b41146102bf578063a9059cbb146102eb578063dd62ed3e1461030b578063e83157421461035157600080fd5b806342966c68146102245780636ebcf6071461024657806370a08231146102735780637ff9b596146102a957600080fd5b806318160ddd116100c657806318160ddd146101bd57806323b872dd146101d2578063313ce567146101f25780633940e9ee1461020e57600080fd5b8063024c2ddd146100f857806306fdde0314610143578063095ea7b3146101855780631249c58b146101b5575b600080fd5b34801561010457600080fd5b506101306101133660046107e0565b600360209081526000928352604080842090915290825290205481565b6040519081526020015b60405180910390f35b34801561014f57600080fd5b5060408051808201909152601081526f2932b4b1b436b0b7102a902a37b5b2b760811b60208201525b60405161013a9190610813565b34801561019157600080fd5b506101a56101a0366004610861565b610367565b604051901515815260200161013a565b6101306103f4565b3480156101c957600080fd5b50600454610130565b3480156101de57600080fd5b506101a56101ed36600461088b565b6104aa565b3480156101fe57600080fd5b506040516012815260200161013a565b34801561021a57600080fd5b5061013060045481565b34801561023057600080fd5b5061024461023f3660046108c7565b6105f3565b005b34801561025257600080fd5b506101306102613660046108e0565b60026020526000908152604090205481565b34801561027f57600080fd5b5061013061028e3660046108e0565b6001600160a01b031660009081526002602052604090205490565b3480156102b557600080fd5b5061013060015481565b3480156102cb57600080fd5b506040805180820190915260038152620a4aab60eb1b6020820152610178565b3480156102f757600080fd5b506101a5610306366004610861565b6106e2565b34801561031757600080fd5b506101306103263660046107e0565b6001600160a01b03918216600090815260036020908152604080832093909416825291909152205490565b34801561035d57600080fd5b5061013060005481565b60003360008181526003602090815260408083206001600160a01b03881680855290835281842093909355518581529192917f8c5be1e5ebec7d5bd14f71427d1e84f3dd0314c0f7b2291e5b200ac8c7c3b925910160405180910390a3503360009081526003602090815260408083206001600160a01b0386168452909152902081905560015b92915050565b60003361040057600080fd5b6000341161040d57600080fd5b60006001543461041d9190610918565b905060005460045482610430919061093a565b111561043b57600080fd5b336000908152600260205260409020541561047a57336000908152600260205260408120805483929061046f90849061093a565b9091555061048d9050565b3360009081526002602052604090208190555b806004600082825461049f919061093a565b909155509092915050565b6001600160a01b03831660009081526002602052604081205482118015906104d0575060015b80156104ff57506001600160a01b03841660009081526003602090815260408083203384529091529020548211155b61050857600080fd5b6001600160a01b0384166000908152600260205260408120805484929061053090849061094d565b90915550506001600160a01b0383166000908152600260205260408120805484929061055d90849061093a565b90915550506001600160a01b03841660009081526003602090815260408083203384529091528120805484929061059590849061094d565b92505081905550826001600160a01b0316846001600160a01b03167fddf252ad1be2c89b69c2b068fc378daa952ba7f163c4a11628f55a4df523b3ef846040516105e191815260200190565b60405180910390a35060019392505050565b336105fd57600080fd5b33600090815260026020526040902054811180159061061c5750600081115b61062557600080fd5b336000908152600260205260408120805483929061064490849061094d565b9091555050600080805260026020527fac33ff75c19e70fe83507db0d683fd3465c996598dc972688b7ace676c89077b805483929061068490849061093a565b9091555050600154339081906108fc9061069e9085610960565b6040518115909202916000818181858888f193505050501580156106c6573d6000803e3d6000fd5b5081600460008282546106d9919061094d565b90915550505050565b60006001600160a01b038316158015906106fb57503315155b61070457600080fd5b336000908152600260205260409020548211801590610721575060015b61072a57600080fd5b336000908152600260205260408120805484929061074990849061094d565b90915550506001600160a01b0383166000908152600260205260408120805484929061077690849061093a565b90915550506040518281526001600160a01b0384169033907fddf252ad1be2c89b69c2b068fc378daa952ba7f163c4a11628f55a4df523b3ef9060200160405180910390a350600192915050565b80356001600160a01b03811681146107db57600080fd5b919050565b600080604083850312156107f357600080fd5b6107fc836107c4565b915061080a602084016107c4565b90509250929050565b600060208083528351808285015260005b8181101561084057858101830151858201604001528201610824565b506000604082860101526040601f19601f8301168501019250505092915050565b6000806040838503121561087457600080fd5b61087d836107c4565b946020939093013593505050565b6000806000606084860312156108a057600080fd5b6108a9846107c4565b92506108b7602085016107c4565b9150604084013590509250925092565b6000602082840312156108d957600080fd5b5035919050565b6000602082840312156108f257600080fd5b6108fb826107c4565b9392505050565b634e487b7160e01b600052601160045260246000fd5b60008261093557634e487b7160e01b600052601260045260246000fd5b500490565b808201808211156103ee576103ee610902565b818103818111156103ee576103ee610902565b80820281158282048414176103ee576103ee61090256fea2646970667358221220a95d01844a1474e346cb93fa91903833f8d4cb90aadcb231203e97f4b8aabf6e64736f6c63430008110033",
  "bytecodeSha1": "05393d55ca11d8fc88a70c008eeea41632c14aeb",
  "compiler": {
    "evm_version": "istanbul",
    "optimizer": {
      "enabled": true,
      "runs": 200
    },
    "version": "0.8.17+commit.8df45f5f"
  },
  "contractName": "RUToken",
  "language": "Solidity",
  "natspec": {
    "details": "An implementation of the ERC20 standard for a \"Reichman University\" Token.",
    "kind": "dev",
    "methods": {
      "allowance(address,address)": {
        "details": "Returns the remaining number of tokens that `spender` will be allowed to spend on behalf of `owner` through {transferFrom}. This is zero by default. This value changes when {approve} or {transferFrom} are called."
      },
      "approve(address,uint256)": {
        "details": "Sets `amount` as the allowance of `spender` over the caller's tokens. Returns a boolean value indicating whether the operation succeeded. IMPORTANT: Beware that changing an allowance with this method brings the risk that someone may use both the old and the new allowance by unfortunate transaction ordering. One possible solution to mitigate this race condition is to first reduce the spender's allowance to 0 and set the desired value afterwards: https://github.com/ethereum/EIPs/issues/20#issuecomment-263524729 Emits an {Approval} event."
      },
      "balanceOf(address)": {
        "details": "Returns the amount of tokens owned by `account`."
      },
      "burn(uint256)": {
        "notice": "Burn `amount` tokens. The corresponding value (`tokenPrice` for each token) is sent to the caller."
      },
      "decimals()": {
        "details": "Returns the decimals places of the token."
      },
      "maxTokens()": {
        "notice": "Maximum number of mintable tokens."
      },
      "mint()": {
        "details": "Mint a new token.  The total number of tokens minted is the msg value divided by tokenPrice."
      },
      "name()": {
        "details": "Returns the name of the token."
      },
      "symbol()": {
        "details": "Returns the symbol of the token."
      },
      "tokenPrice()": {
        "notice": "Price required to mint a token in ETH"
      },
      "totalSupply()": {
        "details": "Returns the amount of tokens in existence."
      },
      "transfer(address,uint256)": {
        "details": "Moves `amount` tokens from the caller's account to `recipient`. Returns a boolean value indicating whether the operation succeeded. Emits a {Transfer} event."
      },
      "transferFrom(address,address,uint256)": {
        "details": "Moves `amount` tokens from `sender` to `recipient` using the allowance mechanism. `amount` is then deducted from the caller's allowance. Returns a boolean value indicating whether the operation succeeded. Emits a {Transfer} event."
      }
    },
    "version": 1
  },
  "opcodes": "PUSH1 0x80 PUSH1 0x40 MSTORE PUSH1 0x4 CALLDATASIZE LT PUSH2 0xF3 JUMPI PUSH1 0x0 CALLDATALOAD PUSH1 0xE0 SHR DUP1 PUSH4 0x42966C68 GT PUSH2 0x8A JUMPI DUP1 PUSH4 0x95D89B41 GT PUSH2 0x59 JUMPI DUP1 PUSH4 0x95D89B41 EQ PUSH2 0x2BF JUMPI DUP1 PUSH4 0xA9059CBB EQ PUSH2 0x2EB JUMPI DUP1 PUSH4 0xDD62ED3E EQ PUSH2 0x30B JUMPI DUP1 PUSH4 0xE8315742 EQ PUSH2 0x351 JUMPI PUSH1 0x0 DUP1 REVERT JUMPDEST DUP1 PUSH4 0x42966C68 EQ PUSH2 0x224 JUMPI DUP1 PUSH4 0x6EBCF607 EQ PUSH2 0x246 JUMPI DUP1 PUSH4 0x70A08231 EQ PUSH2 0x273 JUMPI DUP1 PUSH4 0x7FF9B596 EQ PUSH2 0x2A9 JUMPI PUSH1 0x0 DUP1 REVERT JUMPDEST DUP1 PUSH4 0x18160DDD GT PUSH2 0xC6 JUMPI DUP1 PUSH4 0x18160DDD EQ PUSH2 0x1BD JUMPI DUP1 PUSH4 0x23B872DD EQ PUSH2 0x1D2 JUMPI DUP1 PUSH4 0x313CE567 EQ PUSH2 0x1F2 JUMPI DUP1 PUSH4 0x3940E9EE EQ PUSH2 0x20E JUMPI PUSH1 0x0 DUP1 REVERT JUMPDEST DUP1 PUSH4 0x24C2DDD EQ PUSH2 0xF8 JUMPI DUP1 PUSH4 0x6FDDE03 EQ PUSH2 0x143 JUMPI DUP1 PUSH4 0x95EA7B3 EQ PUSH2 0x185 JUMPI DUP1 PUSH4 0x1249C58B EQ PUSH2 0x1B5 JUMPI JUMPDEST PUSH1 0x0 DUP1 REVERT JUMPDEST CALLVALUE DUP1 ISZERO PUSH2 0x104 JUMPI PUSH1 0x0 DUP1 REVERT JUMPDEST POP PUSH2 0x130 PUSH2 0x113 CALLDATASIZE PUSH1 0x4 PUSH2 0x7E0 JUMP JUMPDEST PUSH1 0x3 PUSH1 0x20 SWAP1 DUP2 MSTORE PUSH1 0x0 SWAP3 DUP4 MSTORE PUSH1 0x40 DUP1 DUP5 KECCAK256 SWAP1 SWAP2 MSTORE SWAP1 DUP3 MSTORE SWAP1 KECCAK256 SLOAD DUP2 JUMP JUMPDEST PUSH1 0x40 MLOAD SWAP1 DUP2 MSTORE PUSH1 0x20 ADD JUMPDEST PUSH1 0x40 MLOAD DUP1 SWAP2 SUB SWAP1 RETURN JUMPDEST CALLVALUE DUP1 ISZERO PUSH2 0x14F JUMPI PUSH1 0x0 DUP1 REVERT JUMPDEST POP PUSH1 0x40 DUP1 MLOAD DUP1 DUP3 ADD SWAP1 SWAP2 MSTORE PUSH1 0x10 DUP2 MSTORE PUSH16 0x2932B4B1B436B0B7102A902A37B5B2B7 PUSH1 0x81 SHL PUSH1 0x20 DUP3 ADD MSTORE JUMPDEST PUSH1 0x40 MLOAD PUSH2 0x13A SWAP2 SWAP1 PUSH2 0x813 JUMP JUMPDEST CALLVALUE DUP1 ISZERO PUSH2 0x191 JUMPI PUSH1 0x0 DUP1 REVERT JUMPDEST POP PUSH2 0x1A5 PUSH2 0x1A0 CALLDATASIZE PUSH1 0x4 PUSH2 0x861 JUMP JUMPDEST PUSH2 0x367 JUMP JUMPDEST PUSH1 0x40 MLOAD SWAP1 ISZERO ISZERO DUP2 MSTORE PUSH1 0x20 ADD PUSH2 0x13A JUMP JUMPDEST PUSH2 0x130 PUSH2 0x3F4 JUMP JUMPDEST CALLVALUE DUP1 ISZERO PUSH2 0x1C9 JUMPI PUSH1 0x0 DUP1 REVERT JUMPDEST POP PUSH1 0x4 SLOAD PUSH2 0x130 JUMP JUMPDEST CALLVALUE DUP1 ISZERO PUSH2 0x1DE JUMPI PUSH1 0x0 DUP1 REVERT JUMPDEST POP PUSH2 0x1A5 PUSH2 0x1ED CALLDATASIZE PUSH1 0x4 PUSH2 0x88B JUMP JUMPDEST PUSH2 0x4AA JUMP JUMPDEST CALLVALUE DUP1 ISZERO PUSH2 0x1FE JUMPI PUSH1 0x0 DUP1 REVERT JUMPDEST POP PUSH1 0x40 MLOAD PUSH1 0x12 DUP2 MSTORE PUSH1 0x20 ADD PUSH2 0x13A JUMP JUMPDEST CALLVALUE DUP1 ISZERO PUSH2 0x21A JUMPI PUSH1 0x0 DUP1 REVERT JUMPDEST POP PUSH2 0x130 PUSH1 0x4 SLOAD DUP2 JUMP JUMPDEST CALLVALUE DUP1 ISZERO PUSH2 0x230 JUMPI PUSH1 0x0 DUP1 REVERT JUMPDEST POP PUSH2 0x244 PUSH2 0x23F CALLDATASIZE PUSH1 0x4 PUSH2 0x8C7 JUMP JUMPDEST PUSH2 0x5F3 JUMP JUMPDEST STOP JUMPDEST CALLVALUE DUP1 ISZERO PUSH2 0x252 JUMPI PUSH1 0x0 DUP1 REVERT JUMPDEST POP PUSH2 0x130 PUSH2 0x261 CALLDATASIZE PUSH1 0x4 PUSH2 0x8E0 JUMP JUMPDEST PUSH1 0x2 PUSH1 0x20 MSTORE PUSH1 0x0 SWAP1 DUP2 MSTORE PUSH1 0x40 SWAP1 KECCAK256 SLOAD DUP2 JUMP JUMPDEST CALLVALUE DUP1 ISZERO PUSH2 0x27F JUMPI PUSH1 0x0 DUP1 REVERT JUMPDEST POP PUSH2 0x130 PUSH2 0x28E CALLDATASIZE PUSH1 0x4 PUSH2 0x8E0 JUMP JUMPDEST PUSH1 0x1 PUSH1 0x1 PUSH1 0xA0 SHL SUB AND PUSH1 0x0 SWAP1 DUP2 MSTORE PUSH1 0x2 PUSH1 0x20 MSTORE PUSH1 0x40 SWAP1 KECCAK256 SLOAD SWAP1 JUMP JUMPDEST CALLVALUE DUP1 ISZERO PUSH2 0x2B5 JUMPI PUSH1 0x0 DUP1 REVERT JUMPDEST POP PUSH2 0x130 PUSH1 0x1 SLOAD DUP2 JUMP JUMPDEST CALLVALUE DUP1 ISZERO PUSH2 0x2CB JUMPI PUSH1 0x0 DUP1 REVERT JUMPDEST POP PUSH1 0x40 DUP1 MLOAD DUP1 DUP3 ADD SWAP1 SWAP2 MSTORE PUSH1 0x3 DUP2 MSTORE PUSH3 0xA4AAB PUSH1 0xEB SHL PUSH1 0x20 DUP3 ADD MSTORE PUSH2 0x178 JUMP JUMPDEST CALLVALUE DUP1 ISZERO PUSH2 0x2F7 JUMPI PUSH1 0x0 DUP1 REVERT JUMPDEST POP PUSH2 0x1A5 PUSH2 0x306 CALLDATASIZE PUSH1 0x4 PUSH2 0x861 JUMP JUMPDEST PUSH2 0x6E2 JUMP JUMPDEST CALLVALUE DUP1 ISZERO PUSH2 0x317 JUMPI PUSH1 0x0 DUP1 REVERT JUMPDEST POP PUSH2 0x130 PUSH2 0x326 CALLDATASIZE PUSH1 0x4 PUSH2 0x7E0 JUMP JUMPDEST PUSH1 0x1 PUSH1 0x1 PUSH1 0xA0 SHL SUB SWAP2 DUP3 AND PUSH1 0x0 SWAP1 DUP2 MSTORE PUSH1 0x3 PUSH1 0x20 SWAP1 DUP2 MSTORE PUSH1 0x40 DUP1 DUP4 KECCAK256 SWAP4 SWAP1 SWAP5 AND DUP3 MSTORE SWAP2 SWAP1 SWAP2 MSTORE KECCAK256 SLOAD SWAP1 JUMP JUMPDEST CALLVALUE DUP1 ISZERO PUSH2 0x35D JUMPI PUSH1 0x0 DUP1 REVERT JUMPDEST POP PUSH2 0x130 PUSH1 0x0 SLOAD DUP2 JUMP JUMPDEST PUSH1 0x0 CALLER PUSH1 0x0 DUP2 DUP2 MSTORE PUSH1 0x3 PUSH1 0x20 SWAP1 DUP2 MSTORE PUSH1 0x40 DUP1 DUP4 KECCAK256 PUSH1 0x1 PUSH1 0x1 PUSH1 0xA0 SHL SUB DUP9 AND DUP1 DUP6 MSTORE SWAP1 DUP4 MSTORE DUP2 DUP5 KECCAK256 SWAP4 SWAP1 SWAP4 SSTORE MLOAD DUP6 DUP2 MSTORE SWAP2 SWAP3 SWAP2 PUSH32 0x8C5BE1E5EBEC7D5BD14F71427D1E84F3DD0314C0F7B2291E5B200AC8C7C3B925 SWAP2 ADD PUSH1 0x40 MLOAD DUP1 SWAP2 SUB SWAP1 LOG3 POP CALLER PUSH1 0x0 SWAP1 DUP2 MSTORE PUSH1 0x3 PUSH1 0x20 SWAP1 DUP2 MSTORE PUSH1 0x40 DUP1 DUP4 KECCAK256 PUSH1 0x1 PUSH1 0x1 PUSH1 0xA0 SHL SUB DUP7 AND DUP5 MSTORE SWAP1 SWAP2 MSTORE SWAP1 KECCAK256 DUP2 SWAP1 SSTORE PUSH1 0x1 JUMPDEST SWAP3 SWAP2 POP POP JUMP JUMPDEST PUSH1 0x0 CALLER PUSH2 0x400 JUMPI PUSH1 0x0 DUP1 REVERT JUMPDEST PUSH1 0x0 CALLVALUE GT PUSH2 0x40D JUMPI PUSH1 0x0 DUP1 REVERT JUMPDEST PUSH1 0x0 PUSH1 0x1 SLOAD CALLVALUE PUSH2 0x41D SWAP2 SWAP1 PUSH2 0x918 JUMP JUMPDEST SWAP1 POP PUSH1 0x0 SLOAD PUSH1 0x4 SLOAD DUP3 PUSH2 0x430 SWAP2 SWAP1 PUSH2 0x93A JUMP JUMPDEST GT ISZERO PUSH2 0x43B JUMPI PUSH1 0x0 DUP1 REVERT JUMPDEST CALLER PUSH1 0x0 SWAP1 DUP2 MSTORE PUSH1 0x2 PUSH1 0x20 MSTORE PUSH1 0x40 SWAP1 KECCAK256 SLOAD ISZERO PUSH2 0x47A JUMPI CALLER PUSH1 0x0 SWAP1 DUP2 MSTORE PUSH1 0x2 PUSH1 0x20 MSTORE PUSH1 0x40 DUP2 KECCAK256 DUP1 SLOAD DUP4 SWAP3 SWAP1 PUSH2 0x46F SWAP1 DUP5 SWAP1 PUSH2 0x93A JUMP JUMPDEST SWAP1 SWAP2 SSTORE POP PUSH2 0x48D SWAP1 POP JUMP JUMPDEST CALLER PUSH1 0x0 SWAP1 DUP2 MSTORE PUSH1 0x2 PUSH1 0x20 MSTORE PUSH1 0x40 SWAP1 KECCAK256 DUP2 SWAP1 SSTORE JUMPDEST DUP1 PUSH1 0x4 PUSH1 0x0 DUP3 DUP3 SLOAD PUSH2 0x49F SWAP2 SWAP1 PUSH2 0x93A JUMP JUMPDEST SWAP1 SWAP2 SSTORE POP SWAP1 SWAP3 SWAP2 POP POP JUMP JUMPDEST PUSH1 0x1 PUSH1 0x1 PUSH1 0xA0 SHL SUB DUP4 AND PUSH1 0x0 SWAP1 DUP2 MSTORE PUSH1 0x2 PUSH1 0x20 MSTORE PUSH1 0x40 DUP2 KECCAK256 SLOAD DUP3 GT DUP1 ISZERO SWAP1 PUSH2 0x4D0 JUMPI POP PUSH1 0x1 JUMPDEST DUP1 ISZERO PUSH2 0x4FF JUMPI POP PUSH1 0x1 PUSH1 0x1 PUSH1 0xA0 SHL SUB DUP5 AND PUSH1 0x0 SWAP1 DUP2 MSTORE PUSH1 0x3 PUSH1 0x20 SWAP1 DUP2 MSTORE PUSH1 0x40 DUP1 DUP4 KECCAK256 CALLER DUP5 MSTORE SWAP1 SWAP2 MSTORE SWAP1 KECCAK256 SLOAD DUP3 GT ISZERO JUMPDEST PUSH2 0x508 JUMPI PUSH1 0x0 DUP1 REVERT JUMPDEST PUSH1 0x1 PUSH1 0x1 PUSH1 0xA0 SHL SUB DUP5 AND PUSH1 0x0 SWAP1 DUP2 MSTORE PUSH1 0x2 PUSH1 0x20 MSTORE PUSH1 0x40 DUP2 KECCAK256 DUP1 SLOAD DUP5 SWAP3 SWAP1 PUSH2 0x530 SWAP1 DUP5 SWAP1 PUSH2 0x94D JUMP JUMPDEST SWAP1 SWAP2 SSTORE POP POP PUSH1 0x1 PUSH1 0x1 PUSH1 0xA0 SHL SUB DUP4 AND PUSH1 0x0 SWAP1 DUP2 MSTORE PUSH1 0x2 PUSH1 0x20 MSTORE PUSH1 0x40 DUP2 KECCAK256 DUP1 SLOAD DUP5 SWAP3 SWAP1 PUSH2 0x55D SWAP1 DUP5 SWAP1 PUSH2 0x93A JUMP JUMPDEST SWAP1 SWAP2 SSTORE POP POP PUSH1 0x1 PUSH1 0x1 PUSH1 0xA0 SHL SUB DUP5 AND PUSH1 0x0 SWAP1 DUP2 MSTORE PUSH1 0x3 PUSH1 0x20 SWAP1 DUP2 MSTORE PUSH1 0x40 DUP1 DUP4 KECCAK256 CALLER DUP5 MSTORE SWAP1 SWAP2 MSTORE DUP2 KECCAK256 DUP1 SLOAD DUP5 SWAP3 SWAP1 PUSH2 0x595 SWAP1 DUP5 SWAP1 PUSH2 0x94D JUMP JUMPDEST SWAP3 POP POP DUP2 SWAP1 SSTORE POP DUP3 PUSH1 0x1 PUSH1 0x1 PUSH1 0xA0 SHL SUB AND DUP5 PUSH1 0x1 PUSH1 0x1 PUSH1 0xA0 SHL SUB AND PUSH32 0xDDF252AD1BE2C89B69C2B068FC378DAA952BA7F163C4A11628F55A4DF523B3EF DUP5 PUSH1 0x40 MLOAD PUSH2 0x5E1 SWAP2 DUP2 MSTORE PUSH1 0x20 ADD SWAP1 JUMP JUMPDEST PUSH1 0x40 MLOAD DUP1 SWAP2 SUB SWAP1 LOG3 POP PUSH1 0x1 SWAP4 SWAP3 POP POP POP JUMP JUMPDEST CALLER PUSH2 0x5FD JUMPI PUSH1 0x0 DUP1 REVERT JUMPDEST CALLER PUSH1 0x0 SWAP1 DUP2 MSTORE PUSH1 0x2 PUSH1 0x20 MSTORE PUSH1 0x40 SWAP1 KECCAK256 SLOAD DUP2 GT DUP1 ISZERO SWAP1 PUSH2 0x61C JUMPI POP PUSH1 0x0 DUP2 GT JUMPDEST PUSH2 0x625 JUMPI PUSH1 0x0 DUP1 REVERT JUMPDEST CALLER PUSH1 0x0 SWAP1 DUP2 MSTORE PUSH1 0x2 PUSH1 0x20 MSTORE PUSH1 0x40 DUP2 KECCAK256 DUP1 SLOAD DUP4 SWAP3 SWAP1 PUSH2 0x644 SWAP1 DUP5 SWAP1 PUSH2 0x94D JUMP JUMPDEST SWAP1 SWAP2 SSTORE POP POP PUSH1 0x0 DUP1 DUP1 MSTORE PUSH1 0x2 PUSH1 0x20 MSTORE PUSH32 0xAC33FF75C19E70FE83507DB0D683FD3465C996598DC972688B7ACE676C89077B DUP1 SLOAD DUP4 SWAP3 SWAP1 PUSH2 0x684 SWAP1 DUP5 SWAP1 PUSH2 0x93A JUMP JUMPDEST SWAP1 SWAP2 SSTORE POP POP PUSH1 0x1 SLOAD CALLER SWAP1 DUP2 SWAP1 PUSH2 0x8FC SWAP1 PUSH2 0x69E SWAP1 DUP6 PUSH2 0x960 JUMP JUMPDEST PUSH1 0x40 MLOAD DUP2 ISZERO SWAP1 SWAP3 MUL SWAP2 PUSH1 0x0 DUP2 DUP2 DUP2 DUP6 DUP9 DUP9 CALL SWAP4 POP POP POP POP ISZERO DUP1 ISZERO PUSH2 0x6C6 JUMPI RETURNDATASIZE PUSH1 0x0 DUP1 RETURNDATACOPY RETURNDATASIZE PUSH1 0x0 REVERT JUMPDEST POP DUP2 PUSH1 0x4 PUSH1 0x0 DUP3 DUP3 SLOAD PUSH2 0x6D9 SWAP2 SWAP1 PUSH2 0x94D JUMP JUMPDEST SWAP1 SWAP2 SSTORE POP POP POP POP JUMP JUMPDEST PUSH1 0x0 PUSH1 0x1 PUSH1 0x1 PUSH1 0xA0 SHL SUB DUP4 AND ISZERO DUP1 ISZERO SWAP1 PUSH2 0x6FB JUMPI POP CALLER ISZERO ISZERO JUMPDEST PUSH2 0x704 JUMPI PUSH1 0x0 DUP1 REVERT JUMPDEST CALLER PUSH1 0x0 SWAP1 DUP2 MSTORE PUSH1 0x2 PUSH1 0x20 MSTORE PUSH1 0x40 SWAP1 KECCAK256 SLOAD DUP3 GT DUP1 ISZERO SWAP1 PUSH2 0x721 JUMPI POP PUSH1 0x1 JUMPDEST PUSH2 0x72A JUMPI PUSH1 0x0 DUP1 REVERT JUMPDEST CALLER PUSH1 0x0 SWAP1 DUP2 MSTORE PUSH1 0x2 PUSH1 0x20 MSTORE PUSH1 0x40 DUP2 KECCAK256 DUP1 SLOAD DUP5 SWAP3 SWAP1 PUSH2 0x749 SWAP1 DUP5 SWAP1 PUSH2 0x94D JUMP JUMPDEST SWAP1 SWAP2 SSTORE POP POP PUSH1 0x1 PUSH1 0x1 PUSH1 0xA0 SHL SUB DUP4 AND PUSH1 0x0 SWAP1 DUP2 MSTORE PUSH1 0x2 PUSH1 0x20 MSTORE PUSH1 0x40 DUP2 KECCAK256 DUP1 SLOAD DUP5 SWAP3 SWAP1 PUSH2 0x776 SWAP1 DUP5 SWAP1 PUSH2 0x93A JUMP JUMPDEST SWAP1 SWAP2 SSTORE POP POP PUSH1 0x40 MLOAD DUP3 DUP2 MSTORE PUSH1 0x1 PUSH1 0x1 PUSH1 0xA0 SHL SUB DUP5 AND SWAP1 CALLER SWAP1 PUSH32 0xDDF252AD1BE2C89B69C2B068FC378DAA952BA7F163C4A11628F55A4DF523B3EF SWAP1 PUSH1 0x20 ADD PUSH1 0x40 MLOAD DUP1 SWAP2 SUB SWAP1 LOG3 POP PUSH1 0x1 SWAP3 SWAP2 POP POP JUMP JUMPDEST DUP1 CALLDATALOAD PUSH1 0x1 PUSH1 0x1 PUSH1 0xA0 SHL SUB DUP2 AND DUP2 EQ PUSH2 0x7DB JUMPI PUSH1 0x0 DUP1 REVERT JUMPDEST SWAP2 SWAP1 POP JUMP JUMPDEST PUSH1 0x0 DUP1 PUSH1 0x40 DUP4 DUP6 SUB SLT ISZERO PUSH2 0x7F3 JUMPI PUSH1 0x0 DUP1 REVERT JUMPDEST PUSH2 0x7FC DUP4 PUSH2 0x7C4 JUMP JUMPDEST SWAP2 POP PUSH2 0x80A PUSH1 0x20 DUP5 ADD PUSH2 0x7C4 JUMP JUMPDEST SWAP1 POP SWAP3 POP SWAP3 SWAP1 POP JUMP JUMPDEST PUSH1 0x0 PUSH1 0x20 DUP1 DUP4 MSTORE DUP4 MLOAD DUP1 DUP3 DUP6 ADD MSTORE PUSH1 0x0 JUMPDEST DUP2 DUP2 LT ISZERO PUSH2 0x840 JUMPI DUP6 DUP2 ADD DUP4 ADD MLOAD DUP6 DUP3 ADD PUSH1 0x40 ADD MSTORE DUP3 ADD PUSH2 0x824 JUMP JUMPDEST POP PUSH1 0x0 PUSH1 0x40 DUP3 DUP7 ADD ADD MSTORE PUSH1 0x40 PUSH1 0x1F NOT PUSH1 0x1F DUP4 ADD AND DUP6 ADD ADD SWAP3 POP POP POP SWAP3 SWAP2 POP POP JUMP JUMPDEST PUSH1 0x0 DUP1 PUSH1 0x40 DUP4 DUP6 SUB SLT ISZERO PUSH2 0x874 JUMPI PUSH1 0x0 DUP1 REVERT JUMPDEST PUSH2 0x87D DUP4 PUSH2 0x7C4 JUMP JUMPDEST SWAP5 PUSH1 0x20 SWAP4 SWAP1 SWAP4 ADD CALLDATALOAD SWAP4 POP POP POP JUMP JUMPDEST PUSH1 0x0 DUP1 PUSH1 0x0 PUSH1 0x60 DUP5 DUP7 SUB SLT ISZERO PUSH2 0x8A0 JUMPI PUSH1 0x0 DUP1 REVERT JUMPDEST PUSH2 0x8A9 DUP5 PUSH2 0x7C4 JUMP JUMPDEST SWAP3 POP PUSH2 0x8B7 PUSH1 0x20 DUP6 ADD PUSH2 0x7C4 JUMP JUMPDEST SWAP2 POP PUSH1 0x40 DUP5 ADD CALLDATALOAD SWAP1 POP SWAP3 POP SWAP3 POP SWAP3 JUMP JUMPDEST PUSH1 0x0 PUSH1 0x20 DUP3 DUP5 SUB SLT ISZERO PUSH2 0x8D9 JUMPI PUSH1 0x0 DUP1 REVERT JUMPDEST POP CALLDATALOAD SWAP2 SWAP1 POP JUMP JUMPDEST PUSH1 0x0 PUSH1 0x20 DUP3 DUP5 SUB SLT ISZERO PUSH2 0x8F2 JUMPI PUSH1 0x0 DUP1 REVERT JUMPDEST PUSH2 0x8FB DUP3 PUSH2 0x7C4 JUMP JUMPDEST SWAP4 SWAP3 POP POP POP JUMP JUMPDEST PUSH4 0x4E487B71 PUSH1 0xE0 SHL PUSH1 0x0 MSTORE PUSH1 0x11 PUSH1 0x4 MSTORE PUSH1 0x24 PUSH1 0x0 REVERT JUMPDEST PUSH1 0x0 DUP3 PUSH2 0x935 JUMPI PUSH4 0x4E487B71 PUSH1 0xE0 SHL PUSH1 0x0 MSTORE PUSH1 0x12 PUSH1 0x4 MSTORE PUSH1 0x24 PUSH1 0x0 REVERT JUMPDEST POP DIV SWAP1 JUMP JUMPDEST DUP1 DUP3 ADD DUP1 DUP3 GT ISZERO PUSH2 0x3EE JUMPI PUSH2 0x3EE PUSH2 0x902 JUMP JUMPDEST DUP2 DUP2 SUB DUP2 DUP2 GT ISZERO PUSH2 0x3EE JUMPI PUSH2 0x3EE PUSH2 0x902 JUMP JUMPDEST DUP1 DUP3 MUL DUP2 ISZERO DUP3 DUP3 DIV DUP5 EQ OR PUSH2 0x3EE JUMPI PUSH2 0x3EE PUSH2 0x902 JUMP INVALID LOG2 PUSH5 0x6970667358 0x22 SLT KECCAK256 0xA9 0x5D ADD DUP5 0x4A EQ PUSH21 0xE346CB93FA91903833F8D4CB90AADCB231203E97F4 0xB8 0xAA 0xBF PUSH15 0x64736F6C6343000811003300000000 ",
  "sha1": "f372ece25bb0ae16627a6a9f018bac6b4f420263",
  "source": "// SPDX-License-Identifier: MIT\npragma solidity ^0.8.0;\n\nimport \"../interfaces/IERC20.sol\";\nimport \"../interfaces/IMultisigToken.sol\";\n\n\n/**\n * @dev An implementation of the ERC20 standard for a \"Reichman University\" Token.\n */\ncontract RUToken is IERC20, IERC20Metadata {\n    /**\n     * Maximum number of mintable tokens.\n     */\n    uint public maxTokens;\n\n    /**\n     * Price required to mint a token in ETH\n     */\n    uint public tokenPrice;\n\n    \n\n    //Dictionary of balances\n    mapping(address => uint256) public _balances;\n\n    //Dictionary of allowances\n    mapping(address => mapping(address => uint256)) public _allowances;\n\n    //Create a total number of tokens being circulated\n    uint256 public total_supply = 0;\n\n\n    constructor(uint _tokenPrice, uint _maxTokens) {\n        tokenPrice = _tokenPrice;\n        maxTokens = _maxTokens;\n    }\n\n    /**\n    * @dev Returns the decimals places of the token.\n    */\n    function decimals() external pure override returns (uint8) {\n        return 18;\n    }\n\n    function name() public pure override returns (string memory) {\n        return \"Reichman U Token\";\n    }\n\n    function symbol() public pure override returns (string memory) {\n        return \"RUX\";\n    }\n\n\n    /**\n     * @dev Returns the amount of tokens in existence.\n     */\n    function totalSupply() external view returns (uint256) {\n        // TODO: Implement\n        return total_supply;\n    }\n\n    /**\n     * @dev Returns the amount of tokens owned by `account`.\n     */\n    function balanceOf(address account) public view override returns (uint256) {\n        // TODO: Implement\n        return _balances[account];\n    }\n\n\n    /**\n     * @dev Moves `amount` tokens from the caller's account to `recipient`.\n     *\n     * Returns a boolean value indicating whether the operation succeeded.\n     *\n     * Emits a {Transfer} event.\n     */\n    function transfer(address recipient, uint256 amount) external override returns (bool) {\n        // TODO: Implement\n        require(recipient != address(0) && msg.sender != address(0));\n        require(_balances[msg.sender] >= amount && amount >= 0);\n        _balances[msg.sender] -= amount;\n        _balances[recipient] += amount;\n        \n        emit Transfer(msg.sender, recipient, amount);\n        return true;\n    }\n\n    /**\n     * @dev Returns the remaining number of tokens that `spender` will be\n     * allowed to spend on behalf of `owner` through {transferFrom}. This is\n     * zero by default.\n     *\n     * This value changes when {approve} or {transferFrom} are called.\n     */\n    function allowance(address owner, address spender) external view override returns (uint256) {\n        // TODO: Implement\n        return _allowances[owner][spender];\n    }\n\n    /**\n     * @dev Sets `amount` as the allowance of `spender` over the caller's tokens.\n     *\n     * Returns a boolean value indicating whether the operation succeeded.\n     *\n     * IMPORTANT: Beware that changing an allowance with this method brings the risk\n     * that someone may use both the old and the new allowance by unfortunate\n     * transaction ordering. One possible solution to mitigate this race\n     * condition is to first reduce the spender's allowance to 0 and set the\n     * desired value afterwards:\n     * https://github.com/ethereum/EIPs/issues/20#issuecomment-263524729\n     *\n     * Emits an {Approval} event.\n     */\n    function approve(address spender, uint256 amount) external override returns (bool) {\n        // TODO: Implement\n        require(amount >= 0);\n        _allowances[msg.sender][spender] = 0;\n        emit Approval(msg.sender, spender, amount);\n        _allowances[msg.sender][spender] = amount;\n\n        return true;\n    }\n\n    /**\n     * @dev Moves `amount` tokens from `sender` to `recipient` using the\n     * allowance mechanism. `amount` is then deducted from the caller's\n     * allowance.\n     *\n     * Returns a boolean value indicating whether the operation succeeded.\n     *\n     * Emits a {Transfer} event.\n     */\n    function transferFrom(address sender, address recipient, uint256 amount) external override returns (bool) {\n        // TODO: Implement\n        require(_balances[sender] >= amount && amount >= 0 && _allowances[sender][msg.sender] >= amount);\n        _balances[sender] -= amount;\n        _balances[recipient] += amount;\n        _allowances[sender][msg.sender] -= amount;\n        emit Transfer(sender, recipient, amount);\n        return true;\n    }\n\n    /**\n     * @dev Mint a new token. \n     * The total number of tokens minted is the msg value divided by tokenPrice.\n     */\n    function mint() public payable returns (uint) {\n        // TODO: Implement\n        require(msg.sender != address(0));\n        require(msg.value > 0);\n        uint numTokens = (msg.value / tokenPrice);\n        require(numTokens + total_supply <= maxTokens);\n        if (_balances[msg.sender] > 0){\n        _balances[msg.sender] += numTokens;\n        } else {\n        _balances[msg.sender] = numTokens;\n        }\n        total_supply += numTokens;\n        return numTokens;\n    }\n\n    /**\n     * Burn `amount` tokens. The corresponding value (`tokenPrice` for each token) is sent to the caller.\n     */\n    function burn(uint amount) public {\n        // TODO: Implement\n        require(msg.sender != address(0));\n        require(_balances[msg.sender] >= amount && amount > 0);\n        _balances[msg.sender] -= amount;\n        _balances[address(0)] += amount;\n        address payable receiver = payable(msg.sender);\n        receiver.transfer(amount*tokenPrice);\n        total_supply -= amount;\n    }\n}",
  "sourcePath": "contracts/ru_token.sol",
  "type": "contract"
}